:020000040800F2
:10000000C8F400204501000811150008370C00084D
:100010000D1500088F080008C51F0008000000002B
:10002000000000000000000000000000611B00084C
:10003000EB09000800000000991500084D1C00089D
:100040005F0100085F0100085F0100085F01000810
:100050005F0100085F0100085F0100085F01000800
:100060005F0100085F0100085F0100085F010008F0
:100070005F0100085F0100085F0100085F010008E0
:100080005F0100085F0100085F0100085F010008D0
:100090005F0100085F0100085F0100085F010008C0
:1000A0005F0100085F0100085F0100085F010008B0
:1000B0005F010008191D00085F0100085F010008CA
:1000C0005F0100085F0100085F0100085F01000890
:1000D0005F0100085F0100085F0100085F01000880
:1000E0005F0100085F0100085F0100085F01000870
:1000F0005F0100085F0100085F0100085F01000860
:100100005F0100085F0100085F0100085F0100084F
:100110005F0100085F0100085F0100085F0100083F
:100120005F0100085F0100085F0100085F0100082F
:10013000DFF80CD000F06EFB0048004701DA02083F
:10014000C8F400200648804706480047FEE7FEE75F
:10015000FEE7FEE7FEE7FEE7FEE7FEE7FEE7FEE777
:10016000511C0008310100082DE9F05F0546002010
:1001700092469B4688460646814640241BE0284618
:1001800041464746224600F0A0FA53465A46C01A56
:10019000914110D311461846224600F087FA2D1AD5
:1001A00067EB01084F4622460120002100F07EFA4D
:1001B00017EB00094E41201EA4F10104DFDC484684
:1001C00031462A464346BDE8F09F40EA01039B07BB
:1001D00003D009E008C9121F08C0042AFAD203E0BC
:1001E00011F8013B00F8013B521EF9D27047D2B220
:1001F00001E000F8012B491EFBD270470022F6E710
:1002000010B513460A4604461946FFF7F0FF20468C
:1002100010BD421C10F8011B0029FBD1801A704749
:1002200010B5002200E0521C835C8C5CA34201D11B
:10023000002BF8D1D8B2E1B2401A10BD034611F834
:10024000012B00F8012B002AF9D118467047F0B4B1
:1002500080EA0102D40F4200B2EB410F02D2024603
:10026000084611464A0042D0C30DDDB2C1F3C75261
:10027000AD1A202D35DAC1F3160141F4000204B1A4
:100280005242C5F1200602FA06F12A411044B3EBAE
:10029000D05F23D0C4B1012DA0EBC35009DCF0BC6A
:1002A0004FF0004202EAC352DBB200F5000000F05A
:1002B00025BA400000F1807000EBC350A0F18070BF
:1002C00040EAD170490009E0490841EAC071A0EB59
:1002D000C35000F50000400800EBC350F0BC00F034
:1002E00004BA6142012202EB4101001BF6E7F0BCB7
:1002F000704781F00041AAE780F00040A7E780EA5C
:10030000010210B502F00043400022D04A001FD085
:10031000010E01EB1261C0F35600C2F3560240F425
:10032000000042F40002A0FB022000047F39140404
:1003300000D0401C50EA124001D44000491EC2B215
:100340000C0604EBD010401C4008802A02D003E0C9
:10035000002010BD20F00100002900DA0020184321
:1003600010BD30B480EA010202F0004530F00042D6
:1003700021F0004013D090B1C30DD40DC2F316018B
:10038000C0F31600E41A41F4000140F400027D3489
:10039000914201D3641C00E04900002C02DA30BC19
:1003A000002070474FF400000023914201D3891AC6
:1003B000034340084FEA4101F7D151B1914202D1C4
:1003C0004FF0004105E002D24FF0010101E06FF073
:1003D000010103EBC450284430BC00F086B92DE97C
:1003E000FE4F81EA030404F0004421F00041009430
:1003F0004FF0000B23F0004350EA01045ED052EAB4
:1004000003045BD0C3F30A54C1F30A552C44A4F28D
:10041000F3340194A0FB0254C1F3130141F48011A1
:10042000C3F3130343F4801301FB024400FB034EA8
:10043000840A970A44EA815447EA8357A4FB076871
:1004400002958D0A05FB07854FEA932C04FB0C549B
:100450002705029D4FEA065847EA1637B5EB08050F
:100460006EEB070C870E920E47EA811742EA831261
:10047000A7FB0201B6EB0B0164EB00042B0D43EA72
:100480000C335E1844EB1C50DA465146E7FB020180
:10049000C5F313044FEA0B3343EA14534FEA043213
:1004A000019C43EA0603A4F10C040294009CCDE9EC
:1004B00000B400F060F903B0BDE8F08F0020014601
:1004C000F9E72DE9F04D81EA030404F0004B21F037
:1004D000004514464FF0000A23F0004150EA05029F
:1004E00020D054EA01021DD0C5F30A570246C5F3D5
:1004F0001303C1F31300C1F30A5640F4801543F40B
:100500008013A7EB0608101BD64608F2FD3873EBE4
:10051000050002D308F1010801E092185B41B8F12F
:10052000000F03DA00200146BDE8F08D00204FF4F3
:100530008011064684460EE0171B73EB050705D3B2
:10054000121B63EB050306434CEA010C49084FEA12
:10055000300092185B4150EA0107EDD152EA0300E6
:1005600012D082EA040083EA0501084305D0101B7B
:10057000AB4106D20122002306E000224FF00043E7
:1005800002E06FF0010253101AEB06004CEB085129
:1005900010EB0A0041EB0B01BDE8F04D00F0DCB8B8
:1005A000C10F80EAE0700844CA079623002100F0DA
:1005B000A5B800F0004220F00040C10DC0F31600C5
:1005C00040F400007F2901DA00207047962903DCFF
:1005D000C1F19601C84001E096398840002AF4D064
:1005E0004042704720F00040C10DC0F3160040F4B7
:1005F00000007F2901DA00207047962903DCC1F151
:100600009601C840704796398840704700F0004214
:1006100030F000400AD0C10D01F56071C0F3160042
:1006200042EA0151C20840071143704700200146C9
:10063000704701F0004330B421F0004150EA01025C
:1006400006D00A0DA2F56072C1F31301002A02DC84
:1006500030BC00207047440F44EAC104C100E018D8
:1006600030BC00EBC25000F040B80000002801DBB5
:10067000C0F10040002901DBC1F100418142704717
:1006800030B50B46014600202022012409E021FA62
:1006900002F59D4205D303FA02F5491B04FA02F55F
:1006A0002844151EA2F10102F1DC30BD202A04DB32
:1006B000203A00FA02F1002070479140C2F1200375
:1006C00020FA03F3194390407047202A04DB203AB4
:1006D00021FA02F00021704721FA02F3D040C2F162
:1006E000200291400843194670470029A8BF70476F
:1006F000401C490008BF20F00100704710B4B0FA58
:1007000080FC00FA0CF050EA010404BF10BC7047F2
:1007100049B1CCF1200421FA04F411FA0CF118BF0C
:10072000012121430843A3EB0C01CB1D4FEA0061DB
:100730004FEA102042BF002010BC704700EBC350AE
:1007400010440029A4BF10BC7047401C490008BFDA
:1007500020F0010010BC704710B5141E73F10004A6
:1007600008DA401C41F1000192185B411A4301D1A3
:1007700020F0010010BD2DE9F04D92469B4611B1CD
:10078000B1FA81F202E0B0FA80F220329046FFF72F
:100790008DFF04460F4640EA0A0041EA0B0153462A
:1007A0005A46084313D0114653EA010019D0C8F144
:1007B00040025046FFF789FF05460E46504659460F
:1007C0004246FFF773FF084305D0012004E02046AE
:1007D0003946BDE8F08D0020054346EAE0762C431B
:1007E00037430A986305E40AA0EB08000022FD0ADB
:1007F00044EA47540A3002D500200146E9E70105E2
:1008000010196941DDE9084500196941BDE8F04D5D
:10081000A2E70000064C074D06E0E06840F0010347
:1008200094E8070098471034AC42F6D3FFF784FCF5
:1008300098250508B825050870B58C1810F8015BD7
:1008400015F0070301D110F8013B2A1106D110F869
:10085000012B03E010F8016B01F8016B5B1EF9D16D
:100860002B0705D40023521E0DD401F8013BFAE7F3
:1008700010F8013BCB1A921C03E013F8015B01F85E
:10088000015B521EF9D5A142D8D3002070BD00BF34
:10089000FEE7000038B505460C460020009000F049
:1008A000DDFF01229102684600F01EFF9DF8000066
:1008B000A52801D0012000E00020012C01D1012158
:1008C00000E00021084308B39DF80000A52806D1E8
:1008D000012C04D1C022E102104800F005FF00BF46
:1008E000284601F075FE0028FAD0002001F064F8D7
:1008F000A520009001229102684600F01DFFC02251
:100900004FF40061054800F017FF05E0C0224FF4E6
:100910000061024800F0E8FE38BD00002800002019
:1009200000F0805111B10349086001E002494860BC
:1009300070470000040402400000024000F08051B3
:1009400011B10349086001E00249486070470000A6
:10095000040402400000024021B1026842F001029A
:10096000026004E002684FF6FE731A4002607047AE
:1009700001460020002201F0805313B1054B1A6894
:1009800001E0054B1A6802EA01030BB1012000E007
:100990000020704700040240000002401AB10368C2
:1009A0000B43036002E003688B430360704710B59C
:1009B0000022026847F6F0739A430C6A8B6823435F
:1009C0000C6923434C6923438C692343CC6923433B
:1009D0004C6A23438C6A23431A430260CB6843600A
:1009E0000B6883604B68C36010BD704751B18200D3
:1009F000A2F1C042126842F001038200A2F1C0429B
:100A0000136009E08200A2F1C0421268034B1A4051
:100A10008300A3F1C0431A6070470000FEFF0F007F
:100A2000D0E901121143C2681143026911434269BE
:100A3000114382691143C2691143026A1143426A38
:100A40001143826A1143C26A1143026B1143026867
:100A50009200A2F1C0421160816808290BD101689F
:100A60008900A1F1C041096841F040020168890094
:100A7000A1F1C0410A60416B0968426B526841EACA
:100A80000211426B926841EA0221426B928941EA6B
:100A90000241426B128A41EA0251426B127D41EAE5
:100AA0000261426B926911430268521C9200A2F1EA
:100AB000C0421160C16AB1F5804F1BD1816B0968DA
:100AC000826B526841EA0211826B926841EA02210C
:100AD000826B128A41EA0251826B127D41EA026105
:100AE000826B9269114302689200A2F1C042C2F87F
:100AF000041107E06FF0704201688900A1F1C04164
:100B0000C1F8042170472DE9F04102460025002676
:100B1000002000230024002791F803C00CF00F05EB
:100B200091F803C00CF0100CBCF1000F03D091F849
:100B300002C04CEA050591F800C0BCF1000F31D0AD
:100B4000146800202BE04FF0010C0CFA00F3B1F810
:100B500000C00CEA03069E4220D183004FF00F0C28
:100B60000CFA03F7BC4305FA03FC4CEA040491F8C1
:100B700003C0BCF1280F06D14FF0010C0CFA00FCA9
:100B8000C2F814C00AE091F803C0BCF1480F05D1C7
:100B90004FF0010C0CFA00FCC2F810C0401C0828F1
:100BA000D1D31460B1F800C0BCF1FF0F34DD54683C
:100BB00000202EE000F1080C4FF0010808FA0CF3B9
:100BC000B1F800C00CEA03069E4221D183004FF029
:100BD0000F0C0CFA03F7BC4305FA03FC4CEA0404BF
:100BE00091F803C0BCF1280F05D100F1080C08FAF8
:100BF0000CF8C2F8148091F803C0BCF1480F07D17B
:100C000000F1080C4FF0010808FA0CF8C2F8108047
:100C1000401C0828CED35460BDE8F0810246002075
:100C200093680B400BB1012000E000207047416148
:100C300070470161704700BFFEE7000010B5044631
:100C40002CB14FF480510548FFF7F1FF04E04FF459
:100C500080510248FFF7EDFF10BD00000014014075
:100C60002DE9F04106460F4614461D462B46224606
:100C70003946304600F076FA04FB05F0024909884F
:100C800000F023F9BDE8F0812600002001B502E064
:100C90000098401E009000980028F9D108BD00007F
:100CA0002DE9F04F804689461646A6F120001FFA2E
:100CB00080FA1E49096889881C4A1268D28801FB9B
:100CC00002F0C11700EB5171C1F3C7071748006864
:100CD00000680AFB070B15480068C38813480068C2
:100CE00082884946404600F03DFA2C2000F0B8FBCF
:100CF000002416E0002510E01BF8040080212941A3
:100D0000084020B10A48008800F0AEFB03E0094823
:100D1000008800F0A9FB681CC5B2082DECDB601C44
:100D2000C4B2BC42E6DBBDE8F08F0000200000202A
:100D3000240000202600002070B504460D46002641
:100D400024E0304613490968898808441249098813
:100D5000884205DD00260F480068C088204484B220
:100D600020460C490968C98808440C49098888420A
:100D700001DD002600242A7821463046FFF790FF47
:100D80006D1C044800688088304486B228780028AA
:100D9000D7D170BD20000020180000201A000020CC
:100DA00070B504460D4604F10A018AB2143988B2BE
:100DB0002B46294600F00AF805F10A0083B21438E0
:100DC00081B22246204600F001F870BD2DE9FF4FA8
:100DD00083B081464FF0000AD3460598A0EB090581
:100DE00004990698461ACDF8049004980090002DB6
:100DF00001DD012705E00DB9002702E04FF0FF37C4
:100E00006D42002E02DD4FF0010806E016B94FF0EA
:100E1000000802E04FF0FF387642B54201DD2C4673
:100E200000E034460020029019E0DDE9001000F0F7
:100E3000FBFAAA44B344A24505DDAAEB040A0198D3
:100E4000384480B20190A34505DDABEB040B00985C
:100E5000404480B200900298401C80B20290611C15
:100E600002988842E1DD07B0BDE8F08F00B597B089
:100E70000121080200F092FB012001900420039060
:100E8000800607900020029004900590069008903C
:100E9000099008200A9010200B9000200C900E90D2
:100EA0000F9010904FF480501190002012901390EA
:100EB000149001A81590169008A8FFF7B1FD012124
:100EC0000020FFF793FD17B000BD10B502460B469A
:100ED00000242C2000F0C4FA00BF03E0184600F004
:100EE000C3FA641C9442F9D310BD000008B5012177
:100EF000602000F073FB03208DF8020018208DF8AD
:100F000003004FF48040ADF8000069465B48FFF7EE
:100F1000FAFD4FF40040ADF8000069465748FFF76E
:100F2000F2FD0120ADF8000069465448FFF7EBFDE3
:100F30000220ADF8000069465048FFF7E4FD80202C
:100F4000ADF8000069464E48FFF7DDFD4FF48070B4
:100F5000ADF8000069464A48FFF7D5FD4FF4007030
:100F6000ADF8000069464648FFF7CDFD4FF48060BC
:100F7000ADF8000069464248FFF7C5FD4FF4006038
:100F8000ADF8000069463E48FFF7BDFD4FF48050C4
:100F9000ADF8000069463A48FFF7B5FD4FF4005040
:100FA000ADF8000069463648FFF7ADFD4FF48040CC
:100FB000ADF8000069463248FFF7A5FD4FF4004048
:100FC000ADF8000069462E48FFF79DFD4FF4807094
:100FD000ADF8000069462948FFF795FD4FF4007011
:100FE000ADF8000069462548FFF78DFD4FF480609D
:100FF000ADF8000069462148FFF785FD03208DF814
:10100000020018208DF803001020ADF8000069469A
:101010001A48FFF778FD2020ADF800006946174810
:10102000FFF771FD8020ADF8000069461348FFF717
:101030006AFD4FF40060ADF8000069460F48FFF705
:1010400062FD10208DF8030003208DF802000220BD
:10105000ADF8000069460A48FFF755FD10208DF8ED
:10106000030003208DF802004FF48050ADF800001B
:1010700069460248FFF747FD08BD00000014014023
:101080000018014000B50246072A00DD00BD2848CF
:101090000270104602EBD0714910A2EB410139B940
:1010A000F020244908804FF4A0702349088006E00E
:1010B0004FF4A0701F490880F0201F490880362097
:1010C00000F0CEF9082141EA421000F0CDF92A20C3
:1010D00000F0C6F9002000F0C7F9002000F0C4F9C4
:1010E00014490988491EC1F3072000F0BDF91149D0
:1010F0000978491EC8B200F0B7F92B2000F0B0F90A
:10110000002000F0B1F9002000F0AEF90A4909888A
:10111000491EC1F3072000F0A7F907490978491EC5
:10112000C8B200F0A1F92C2000F09AF900BFADE799
:101130001C000020180000201A00002010B5FFF746
:10114000D5FEFFF793FE0120FFF778FD00F04EF982
:1011500000F034F802480078FFF794FF10BD00005B
:101160001C00002030B504460D462A2000F078F916
:10117000201200F079F9E0B200F076F9A118491ECA
:10118000C1F30F2000F070F9A118491EC8B200F099
:101190006BF92B2000F064F9281200F065F9E8B231
:1011A00000F062F9E918491EC1F30F2000F05CF964
:1011B000E918491EC8B200F057F930BD10B5CF206C
:1011C00000F04EF9002000F04FF9812000F04CF9BA
:1011D000302000F049F9ED2000F042F9642000F0E1
:1011E00043F9032000F040F9122000F03DF981207E
:1011F00000F03AF9E82000F033F9852000F034F9E6
:10120000102000F031F9782000F02EF9CB2000F00A
:1012100027F9392000F028F92C2000F025F90020CA
:1012200000F022F9342000F01FF9022000F01CF930
:10123000F72000F015F9202000F016F9EA2000F060
:101240000FF9002000F010F9002000F00DF9B12096
:1012500000F006F9002000F007F91B2000F004F967
:10126000B62000F0FDF80A2000F0FEF8A22000F001
:10127000FBF8C02000F0F4F8352000F0F5F8C120AC
:1012800000F0EEF8112000F0EFF8C52000F0E8F8CB
:10129000452000F0E9F8452000F0E6F8C72000F00E
:1012A000DFF8A22000F0E0F8F22000F0D9F80020EA
:1012B00000F0DAF8262000F0D3F8012000F0D4F88E
:1012C000E02000F0CDF80F2000F0CEF8262000F04E
:1012D000CBF8242000F0C8F80B2000F0C5F80E2051
:1012E00000F0C2F8092000F0BFF8542000F0BCF86C
:1012F000A82000F0B9F8462000F0B6F80C2000F065
:10130000B3F8172000F0B0F8092000F0ADF80F2076
:1013100000F0AAF8072000F0A7F8002000F0A4F8D9
:10132000E12000F09DF8002000F09EF8192000F068
:101330009BF81B2000F098F8042000F095F810208E
:1013400000F092F8072000F08FF82A2000F08CF8C7
:10135000472000F089F8392000F086F8032000F0DB
:1013600083F8062000F080F8062000F07DF8302099
:1013700000F07AF8382000F077F80F2000F074F8C9
:10138000362000F06DF8C82000F06EF82A2000F03A
:1013900067F8002000F068F8002000F065F80020F1
:1013A00000F062F8EF2000F05FF82B2000F058F812
:1013B000002000F059F8002000F056F8012000F05D
:1013C00053F83F2000F050F83A2000F049F855203B
:1013D00000F04AF8112000F043F80348FFF756FCEC
:1013E000292000F03DF810BDFCBF020010B502211D
:1013F0000748FFF71CFC40F6FF20FFF747FC0221DF
:101400000348FFF716FC40F6FF20FFF73FFC10BD36
:101410000018014030B504460D4601231A462946FE
:101420002046FFF79FFE30BD70B505460C460948C3
:10143000008885420CDA08480088844208DA214690
:101440002846FFF7E7FF054801880120FFF73DFD2B
:1014500070BD0000180000201A00002024000020A9
:101460004FF0C04108807047014908807047000074
:101470000000026001480068704700002000002062
:10148000024A1080024A11807047000024000020A8
:10149000260000200149086070470000200000205D
:1014A00001490880704700002400002008B5012190
:1014B000082000F093F82020ADF8000010208DF8EF
:1014C000030003208DF8020069460F48FFF71BFB5D
:1014D0000120ADF8000069460B48FFF714FB02201D
:1014E000ADF8000069460848FFF70DFB20210648CB
:1014F000FFF79FFB01210448FFF79BFB02210248F5
:10150000FFF797FB08BD0000000C014000BFFEE79D
:101510007047000070B5002100230F22C47804B387
:10152000154C246804F4E064C4F5E064210AC1F1B8
:101530000403CA40447804FA03F184781440214338
:1015400009010E4C0678A155047804F01F0501240A
:10155000AC4005786D11AD0005F1E025C5F80041FE
:1015600009E0047804F01F050124AC40044D06781E
:10157000761145F8264070BD0CED00E000E400E077
:1015800080E100E002490143024A11607047000017
:101590000000FA050CED00E07047000029B1064A92
:1015A00052690243044B5A6104E0034A5269824380
:1015B000014B5A61704700000010024029B1064AF1
:1015C000D2690243044BDA6104E0034AD2698243E0
:1015D000014BDA61704700000010024029B1064A51
:1015E00092690243044B9A6104E0034A9269824380
:1015F000014B9A61704700000010024030B5002195
:101600000022002400232D4D6D6805F00C0121B14E
:10161000042905D0082923D105E0294D056022E0E1
:10162000274D05601FE0254D6D6805F47012234DB0
:101630006D6805F48034022505EB92421CB9214DFA
:10164000554305600BE01D4D6D6805F400351DB177
:101650001C4D5543056002E0194D5543056002E0FD
:10166000174D056000BF00BF144D6D6805F0F00117
:101670000909154D6B5C0568DD4045600F4D6D68CF
:1016800005F4E061090A104D6B5C4568DD4085603A
:101690000A4D6D6805F46051C90A0B4D6B5C4568D5
:1016A000DD40C560054D6D6805F44041890B074D6F
:1016B0006B5CC568B5FBF3F5056130BD00100240F9
:1016C00000127A0000093D000000002010000020F8
:1016D00021B1028842F04002028004E002884FF605
:1016E000BF731A400280704770B505460C46164617
:1016F00001211048FFF79BFA032000F07FF9C4F3A3
:10170000074000F07BF9C4F3072000F077F9E0B25E
:1017100000F074F904E0FF2000F070F928706D1CEF
:10172000301EA6F101018EB2F5D101210148FFF76B
:1017300080FA70BD001001402DE9F05F07460E46AB
:1017400014464FF00008C146C2460025AB4606F0DD
:10175000FF0ACAF10000C5B22046E11704EB11618F
:10176000C1F30728E11704EB11610912A4EB012171
:1017700001F0FF09BAF1000F20D1B8F1000F05D137
:1017800022463146384600F0C9F864E009E04FF4DB
:1017900080723146384600F0C1F806F5807607F5CC
:1017A0008077B8F10000A8F1010101F0FF08EED147
:1017B0004A463146384600F0B1F84CE0B8F1000F27
:1017C00018D1A94510DDA9EB050000F0FF0B2A4652
:1017D0003146384600F0A2F82E442F445A4631468E
:1017E000384600F09BF836E022463146384600F095
:1017F00095F830E0601B84B22046E11704EB1161DC
:10180000C1F30728E11704EB11610912A4EB0121D0
:1018100001F0FF092A463146384600F07FF82E4491
:101820002F4409E04FF480723146384600F076F8D4
:1018300006F5807607F58077B8F10000A8F1010180
:1018400001F0FF08EED1B9F1000F04D04A4631464D
:10185000384600F063F8BDE8F09F000000B587B09F
:1018600001210803FFF7BAFE0121D420FFF7B6FEDD
:101870000120ADF8040003208DF8060010208DF83B
:10188000070001A92248FFF73EF92020ADF8040027
:1018900018208DF8070001A91E48FFF734F94020F1
:1018A000ADF8040001A91B48FFF72DF98020ADF821
:1018B000040001A91748FFF726F901211448FFF792
:1018C000B8F90020ADF808004FF48270ADF80A00B6
:1018D0000020ADF80C000220ADF80E000120ADF89C
:1018E00010004002ADF812000820ADF814000020EE
:1018F000ADF816000720ADF8180002A9064800F060
:10190000F1F801210448FFF7E3FE07B000BD000035
:1019100000100140000801400030014070B505464C
:101920000C46164600F0C0F801211548FFF77FF974
:10193000022000F063F8C4F3074000F05FF8C4F33E
:10194000072000F05BF8E0B200F058F8B6F5807FB1
:1019500004DD4FF480760BA001F0E6F803E0287870
:1019600000F04CF86D1C301EA6F101018EB2F6D1CC
:1019700001210348FFF75DF900F07CF870BD00001D
:10198000001001403C3C2D464C4153482D455252DD
:101990004F522D3E3E205350495F464C4153485FC5
:1019A00050616765577269746520746F6F206C6150
:1019B000726765210A00000010B5044600F074F853
:1019C00000F058F801210C48FFF731F9202000F011
:1019D00015F8C4F3074000F011F8C4F3072000F035
:1019E0000DF8E0B200F00AF801210348FFF721F9F1
:1019F00000F040F810BD00000010014010B5044692
:101A00004FF48050194908600AE018490868411EDF
:101A1000164A116020B9002000F082F8C0B210BD53
:101A20000221134800F050F80028EED0214610485B
:101A300000F056F84FF480500C4908600AE00B495A
:101A40000868411E094A116020B9012000F068F8B9
:101A5000C0B2E4E70121064800F036F80028EED0D5
:101A6000034800F03AF8C0B2D9E7000014000020A3
:101A70000030014010B5002401210A48FFF7D7F8D3
:101A80000520FFF7BBFF00BFFF20FFF7B7FF0446AD
:101A900004F001000028F7D101210248FFF7C9F83E
:101AA00010BD00000010014010B501210548FFF7EE
:101AB000BEF80620FFF7A2FF01210248FFF7B9F8A0
:101AC00010BD0000001001400246002013890B40A9
:101AD0000BB1012000E00020704701468889704763
:101AE0008181704710B50022028802F441520B88B0
:101AF0004C8823438C882343CC8823430C8923437D
:101B00004C8923438C892343CC8923431A43028085
:101B1000838B4FF2FF74234083830B8A038210BDB3
:101B200010B50446214602A000F0FEFF002010BDC3
:101B30003C3C2D464C4153482D4552524F522D3E70
:101B40003E2053504920B5C8B4FDB3ACCAB121659D
:101B500072726F72436F6465203D2025640A000035
:101B6000704710B500F002F810BD00000CB5002061
:101B7000019000903348006840F48030314908609B
:101B800000BF3048006800F4003000900198401C0D
:101B90000190009818B90198B0F5A06FF1D12948CB
:101BA000006800F4003010B10120009001E0002036
:101BB00000900098012843D12348006840F01000AD
:101BC000214908600846006820F0030008600846C4
:101BD000006840F0020008601A48406819494860EF
:101BE0000846406848600846406840F480604860A5
:101BF0000846406820F47C1048600846406840F47D
:101C0000E81048600846006840F08070086000BF37
:101C10000C48006800F000700028F9D009484068BE
:101C200020F00300074948600846406840F0020081
:101C3000486000BF0348406800F00C000828F9D154
:101C40000CBD000000100240002002407047000060
:101C500010B51348006840F00100114908600846BB
:101C60004068104908400E494860084600680E491F
:101C700008400B4908600846006820F4802008608E
:101C80000846406820F4FE0048604FF41F0088605A
:101C9000FFF767FF4FF000600449086010BD0000C7
:101CA000001002400000FFF8FFFFF6FE08ED00E024
:101CB0007FB505460C4601210220FFF77FFCADF8F9
:101CC0000850ADF804400020ADF80A00ADF8060059
:101CD00001A9104800F05AF8012211460D4800F001
:101CE0004BF84FF4A060FFF74DFC1D208DF800006D
:101CF00000208DF8010003208DF8020001208DF8EE
:101D000003006846FFF706FC0121024800F017F8BF
:101D10007FBD00000004004010B50121054800F01F
:101D20001AF830B101202AF0B9FF0121014800F072
:101D300003F810BD00040040CA430282704721B17D
:101D4000028842F00102028004E002884FF6FE732E
:101D50001A400280704730B502460020002300245C
:101D6000158A05EA0103958905EA010413B10CB14E
:101D7000012000E0002030BD1AB183890B4383812C
:101D800002E083898B438381704700000022028830
:101D90001D4B98420ED01D4B98420BD0B0F1804F96
:101DA00008D01B4B984205D01A4B984202D01A4BD0
:101DB000984204D14FF68F731A404B881A43174B41
:101DC000984207D0164B984204D04FF6FF431A4072
:101DD000CB881A4302808B8883850B8803850A4B46
:101DE00098420BD0094B984208D00E4B984205D030
:101DF0000D4B984202D00D4B984201D10B7A0386CD
:101E00000123838270470000002C01400034014010
:101E10000004004000080040000C0040001000409A
:101E200000140040004001400044014000480140CF
:101E300021B1828942F40052828104E082894DF608
:101E4000FF731A408281704700B585B001210420DC
:101E5000FFF7C4FB01218803FFF7C0FB4FF40070BC
:101E6000ADF8100018208DF8130003208DF8120033
:101E700004A91348FEF747FE4FF48060ADF8100048
:101E800004208DF8130004A90D48FEF73CFE4FF422
:101E9000E13000900020ADF80400ADF80600ADF888
:101EA0000800ADF80C000C20ADF80A0069460548A2
:101EB00000F018F801210348FFF7BAFF05B000BD94
:101EC000000801400038014002460020B1F5007FC3
:101ED00000D100BF13880B400BB1012000E00020AF
:101EE000704700002DE9F04786B005460E460024F5
:101EF000A24600BFA1460027B08900B100BF2F460F
:101F00002C8A4CF6FF700440F08804432C82AC8984
:101F10004EF6F3100440B0883189084371890843B4
:101F20000443AC81AC8A4FF6FF400440B0890443BF
:101F3000AC8201A8FFF762FB1F48874202D1DDF89F
:101F400010A001E0DDF80CA0A88900F4004040B129
:101F50000AEBCA0000EB0A1031684900B0FBF1F847
:101F600007E00AEBCA0000EB0A1031688900B0FBF9
:101F7000F1F86420B8FBF0F004012009642101FBB2
:101F80001089A88900F4004040B1322000EBC9005C
:101F9000B0FBF1F000F00700044308E0322000EB52
:101FA00009106421B0FBF1F000F00F0004432C8114
:101FB00006B0BDE8F087000000380140C1F3080218
:101FC0008280704700BFFEE72DE9F04105460C46D0
:101FD00016460127B4F90010B4F91020891AB4F993
:101FE0000A30B4F912209A1A5143B4F90820B4F90E
:101FF0001030D31AB4F902C0B4F91220ACEB0202CB
:1020000003FB1210FEF7CCFAB0610021B069FEF7B5
:102010002DFB01D10027C3E0B5F90010B5F9102060
:10202000891AB4F90A30B4F912209A1A5143B5F951
:102030000820B5F91030D31AB4F902C0B4F912204F
:10204000ACEB020203FB1210FEF7AAFA3060B4F9FF
:102050000010B4F91020891AB5F90820B5F910302C
:10206000D21A5143B5F90020D21AB4F90830B4F9A4
:1020700010C0A3EB0C0302FB1310FEF791FA706083
:10208000B4F91010B5F908205143B4F90820B5F996
:10209000103002FB1311B4F902205143B4F90020AF
:1020A0005A43B4F91030B5F900C003FB1C23B4F94E
:1020B0000A2003FB0212B4F9081001FB0CF1B4F979
:1020C0000030B5F908C003FB1C13B4F9121003FB70
:1020D0000120FEF765FAB060B5F90220B5F91210DB
:1020E000511AB4F90A30B4F912209A1A5143B5F9C9
:1020F0000A30B5F912209B1AB4F902C0B4F91220C3
:10210000ACEB020203FB1210FEF74AFAF060B4F9DE
:102110000010B4F91020891AB5F90A30B5F9122067
:102120009A1A5143B5F90230B5F912209A1AB4F946
:102130000830B4F910C0A3EB0C0302FB1310FEF738
:102140002FFA3061B4F91010B5F90A205143B4F9EF
:102150000830B5F9122003FB1211B4F902205143E3
:10216000B4F90020B5F912305A43B4F91030B5F97A
:1021700002C003FB1C23B4F90A2003FB0213B4F9C9
:10218000081001FB0CF1B4F900C0B5F90A200CFBF2
:102190001212B4F9121002FB0130FEF701FA70615D
:1021A0003846BDE8F08101B5002007E00C2100BFF2
:1021B0000A1EA1F10103D9B2FAD1401C009988424C
:1021C000F4D308BD2DE9FC4705460C46684600F0EF
:1021D000BFF8002867D0BDF90200FEF7E1F982469A
:1021E0003248007800EB400004EBC00041685046E4
:1021F000FEF785F88046BDF90000FEF7D1F982466A
:102200002A48007800EB400054F830105046FEF7A2
:1022100076F881464146FEF71AF8074623480078CB
:1022200000EB400004EBC00081683846FEF70FF871
:102230000646FEF7BEF900B22880BDF90200FEF79F
:10224000AFF982461948007800EB400004EBC0006B
:1022500001695046FEF753F88046BDF90000FEF7CD
:102260009FF982461148007800EB400004EBC00063
:10227000C1685046FEF743F881464146FDF7E7FF47
:1022800007460A48007800EB400004EBC0004169B3
:102290003846FDF7DCFF0646FEF78BF900B2688092
:1022A0000120BDE8FC870020FBE700001C000020A7
:1022B00008B501216020FFF791F90120ADF8000079
:1022C0008DF8020010208DF8030069461A48FEF7C9
:1022D0001AFC0420ADF8000069461748FEF713FC0D
:1022E0000820ADF8000001208DF8020048208DF88C
:1022F000030069461048FEF706FC4FF40050ADF8A5
:10230000000001208DF8020010208DF803006946BE
:102310000A48FEF7F8FB4FF400510848FEF787FC27
:102320001020ADF8000048208DF8030069460248EF
:10233000FEF7E9FB08BD0000001801400014014051
:1023400010B50446204600F0BDFB00F0C1F810BDFA
:102350002DE9F0478CB00646002528216846FDF798
:102360004DFF00BF0AA90BA800F09EF8BDF92C0094
:102370002DF81500BDF9281005A820F81510681CC7
:10238000C5B210214648FEF749FC08B90A2DE9DB21
:1023900010214348FEF742FC10B10020414908706B
:1023A0000A2D7BD1BDF90070B846BDF91490CA461C
:1023B00001240EE03DF91400B84202DA3DF9147030
:1023C00005E03DF91400404501DD3DF91480601C35
:1023D000C4B20A2CEEDB012412E005A830F9140087
:1023E000484503DA05A830F9149007E005A830F94C
:1023F0001400504502DD05A830F914A0601CC4B2D9
:102400000A2CEADBBDF90000BDF902100844BDF951
:1024100004100844BDF906100844BDF9081008442A
:10242000BDF90A100844BDF90C100844BDF90E109E
:102430000844BDF910100844BDF912100844C01B2F
:10244000A0EB0800C01000B23080BDF91410BDF937
:1024500016000144BDF918000144BDF91A000144F9
:10246000BDF91C000144BDF91E000144BDF9200066
:102470000144BDF922000144BDF924000144BDF925
:1024800026000844A0EB0900A0EB0A00C01000B22F
:10249000708001200CB0BDE8F087FFE70020F9E76D
:1024A00000180140E80000202DE9F04104460D46E7
:1024B0009020FFF745FF06B20120FFF774FED02001
:1024C000FFF73EFF07B226802F80BDE8F0810000B5
:1024D00070B5002504211148FEF7A9FB01210F4822
:1024E000FEF7A7FB002414E001210C48FEF79FFB38
:1024F00008210A48FEF792FB0646C4F10B0006FAD3
:1025000000F0284385B201210448FEF792FB601CCD
:10251000C4B20C2CE8DB284670BD00000018014056
:1025200010B500242748007820B1012811D00228D6
:102530003FD12FE010212448FEF770FB20B9012085
:1025400020490870002403E000201E490870002480
:1025500034E010211C48FEF761FBA0B91B4800685D
:10256000401C1A49086008460068022806D9002065
:10257000086002201349087001240AE00120114973
:102580000870002405E00020104908600D4908701B
:10259000002413E010210C48FEF740FB20B9022074
:1025A00008490870012403E000200649087000244F
:1025B00004E0002003490870002400BF00BF20464B
:1025C00010BD0000E900002000180140EC000020D0
:1025D0002DE9F04FB9B004464FF00009CA4600207B
:1025E0001E901D900026FE48FEF754FF00211F207C
:1025F000FEF746FF2046FEF745FDFA4800888010AA
:10260000ADF85400F84800888010ADF85600BDF8C9
:102610005400ADF85C00F448008800EB40008010E6
:1026200001B215A84181EF48008800EB40008010FE
:1026300000B2ADF8640015A841894182BDF864007C
:10264000ADF86C00BDF8561015A84183002558E080
:10265000E5480388E348028800210846FEF700FBAE
:10266000E2A6FEF707FF8088DE49098891FBF0F8B3
:102670003046FDF7CEFDA8EB0000470820233A4680
:10268000E0A11FA8009600F05FFAD749098848101A
:102690001FA9FEF751FBFEF7EDFE8088D14909889E
:1026A00091FBF0F0471E681C009007EBD7704210BA
:1026B0002023D6A11FA800F047FAFEF7DBFEC08852
:1026C000C9490988C0EB610087B21FA93846FEF7E7
:1026D00033FBD048FFF767FD15AA02EBC50252880D
:1026E00091B215AA32F8352090B2FEF759FB00BF1F
:1026F0000DA901EBC500FFF72BFE0028F8D0681CE0
:10270000C5B2042DA4DB06AA0DA915A8FFF75CFC31
:1027100000210C98FDF7AAFF00D143E1BDF94E005E
:10272000FDF73EFF03900799FDF7E9FD8346BDF9EC
:102730004C00FDF735FF03900699FDF7E0FD594683
:102740000490FDF784FD80460899FDF780FD059013
:102750000C99FDF706FE0746FDF744FF1FFA80F9C6
:10276000BDF94E00FDF71CFF03900A99FDF7C7FD68
:102770000590BDF94C00FDF713FF03900999FDF793
:10278000BEFD04900599FDF762FD83460B99FDF7A8
:102790005EFD80460C99FDF7E4FD0746FDF722FF3C
:1027A0001FFA80FABDF96C00484504DABDF96C00E7
:1027B000A9EB000003E0BDF96C00A0EB090080B2BA
:1027C0001E90BDF96E00504504DABDF96E00AAEB0B
:1027D000000003E0BDF96E00A0EB0A0080B21D907E
:1027E0001E980F2802DC1D980F2800DDDAE00C98F7
:1027F000FDF70CFFCDE902010698FDF707FF07463C
:102800000022854BFDF7EBFDCDE90001DDE9022358
:10281000FDF757FECDE90401FDF70BFF04EB440182
:102820007E4A42F831000C98FDF7F0FECDE9020136
:102830000798FDF7EBFE07460022774BFDF7CFFD2B
:10284000CDE90001DDE90223FDF73BFECDE90401FE
:10285000FDF7EFFE04EB4401704A02EBC101486052
:102860000C98FDF7D3FECDE902010898FDF7CEFEE6
:1028700007460022684BFDF7B2FDCDE90001DDE916
:102880000223FDF71EFECDE90401FDF7D2FE04EBA5
:102890004401624A02EBC10188600C98FDF7B6FE64
:1028A000CDE904010998FDF7B1FE00225A4BCDE9AC
:1028B0000001FDF794FDCDE90201DDE90423FDF7F8
:1028C00000FE0746FDF7B5FE04EB4401534A02EB58
:1028D000C101C8600C98FDF799FECDE904010A9882
:1028E000FDF794FE00224C4BCDE90001FDF777FD8A
:1028F000CDE90201DDE90423FDF7E3FD0746FDF71D
:1029000098FE04EB4401454A02EBC10108610C98B2
:10291000FDF77CFECDE902010B98FDF777FE002262
:102920003D4BCDE90001FDF75AFD0746DDE90223E5
:10293000FDF7C7FDCDE90401FDF77BFE04EB440183
:10294000364A02EBC10148612748038825480288BE
:1029500000210846FEF784F94FF4FC60FEF7A0FD65
:102960002FA6FEF787FD80881E49098891FBF0F8A5
:102970003046FDF74EFCA8EB0000470820233A46FE
:1029800020A11FA8009600F0DFF817490988481019
:102990001FA9FEF7D1F92748FFF705FC012039B040
:1029A000BDE8F08F104803880E48028800210846D1
:1029B000FEF756F94FF47840FEF772FD1EA6FEF7BB
:1029C00059FD80880749098891FBF0F83046FDF7EA
:1029D00020FCA8EB0000470820233A4609A133E079
:1029E000F8000020180000201A000020546F7563C2
:1029F000682043616C696272617465202E2E2E2EF0
:102A00002E2E0000252A632573000000252A632549
:102A100064000000E09304000000F03F2800002064
:102A200043616C69627261746520537563636564A8
:102A30000000000040420F0043616C6962726174E3
:102A400065206661696C00001FA8009600F07CF8A4
:102A50001649098848101FA9FEF76EF914A6FEF75B
:102A600009FD80881549098891FBF0F83046FDF78B
:102A7000D0FBA8EB0000470820233A46AFF27C01C8
:102A80001FA8009600F060F8FEF7F4FCC088074924
:102A9000098800EB610087B21FA93846FEF74CF9A0
:102AA0000748FFF780FB002079E700001A000020AC
:102AB00074727920616761696E000000180000205F
:102AC00040420F0070B5054604211648FEF7AFF8E6
:102AD00001211448FEF7ABF800241FE0C4F1070001
:102AE00045FA00F000F0010020B104210D48FEF786
:102AF000A0F803E004210B48FEF799F80520FFF742
:102B000052FB01210748FEF794F80520FFF74BFB25
:102B100001210448FEF78BF8601CC4B2082CDDDBF1
:102B200070BD0000001801400FB4054B10B503A99B
:102B3000044A029802F06EFA10BC5DF814FB000023
:102B4000D9310108EC0400200FB4084B10B504A9DA
:102B500002AA039802F05EFA044602A9002002F0DD
:102B6000FAFB204610BC5DF814FB00005753000828
:102B700002E008C8121F08C1002AFAD17047704746
:102B8000002001E001C1121F002AFBD1704770B57F
:102B90000446002508E02168481C20600878303889
:102BA00005EB850100EB41052168087800F004F889
:102BB0000028F0D1284670BD0146302903DB3929B1
:102BC00001DC012070470020FCE7000010B5402127
:102BD000074801F029FC00221E2106482AF0C6F809
:102BE0000549086003F08CFF00200449087010BDFF
:102BF00098060020CD6B0008B8020020B402002027
:102C000030B50346B1F90040B2F90050AC4202DDE4
:102C1000B1F9004001E0B2F900401C80B1F9024076
:102C2000B2F90250AC4202DDB1F9024001E0B2F962
:102C300002405C80B1F90440B2F90450AC4202DABF
:102C4000B1F9044001E0B2F904409C80B1F90640BA
:102C5000B2F90650AC4202DAB1F9064001E0B2F92D
:102C60000640DC800120B3F90040B3F90450AC42C7
:102C700005DCB3F90240B3F90650AC4200DD002098
:102C800030BDF8B504460D4616460027B4F90000DD
:102C9000B5F90010884212DBB4F90200B5F9021050
:102CA00088420CDBB4F90400B5F90410884206DC54
:102CB000B4F90600B5F90610884200DC01270FB907
:102CC0000020F8BD0EB90120FBE72088ADF8000018
:102CD0006088ADF8020032466946284600F0A7F841
:102CE00008B90020EDE7A088ADF800006088ADF8D5
:102CF000020032466946284600F099F808B90020DB
:102D0000DFE72088ADF80000E088ADF80200324629
:102D10006946284600F08BF808B90020D1E7A08862
:102D2000ADF80000E088ADF802003246694628465A
:102D300000F07DF808B90020C3E70120C1E7024692
:102D4000B2F90000B1F90430984213DCB2F9040082
:102D5000B1F9003098420DDBB2F90200B1F906304A
:102D6000984207DCB2F90600B1F90230984201DB63
:102D7000012070470020FCE7F8B504460D461646D2
:102D8000B4F90400B5F90010884211DBB4F906006B
:102D9000B5F9021088420BDBB4F90000B5F9041054
:102DA000884205DCB4F90200B5F90610884201DD5D
:102DB0000120F8BD0EB90020FBE72088ADF8000027
:102DC0006088ADF8020032466946284600F02FF8C8
:102DD00008B10020EDE7A088ADF800006088ADF8EC
:102DE000020032466946284600F021F808B100206A
:102DF000DFE72088ADF80000E088ADF80200324639
:102E00006946284600F013F808B10020D1E7A088F1
:102E1000ADF80000E088ADF8020032466946284669
:102E200000F005F808B10020C3E70120C1E72DE953
:102E3000FC5F05460E4614464FF0000AB6F9000046
:102E4000B5F90010884213DBB6F90000B5F904109B
:102E500088420DDCB6F90200B5F90210884207DBA2
:102E6000B6F90200B5F90610884201DC4FF0010AFC
:102E7000BAF1000F02D10020BDE8FC9F002C01DC5C
:102E80000120F9E7284614F001FF834600EBDB70D0
:102E90004710284614F064FE834600EBDB704FEACF
:102EA0006008474501DA384600E0404681464C4517
:102EB00000DD4C462888ADF800002888204400B288
:102EC000ADF804006888ADF802006888204400B2BC
:102ED000ADF80600002231466846FFF7A8FF80B132
:102EE000BDF80400204400B2ADF80400BDF80600AF
:102EF000204400B2ADF806003146684626F03EF99F
:102F0000BAE7E888001B00B2ADF80200E888ADF827
:102F10000600002231466846FFF789FF80B1BDF800
:102F20000400204400B2ADF80400BDF80200001B0C
:102F300000B2ADF802003146684626F01FF99BE763
:102F4000A888001B00B2ADF80000A888ADF8040006
:102F5000002231466846FFF76AFF80B1BDF80000E5
:102F6000001B00B2ADF80000BDF80200001B00B26B
:102F7000ADF802003146684626F000F97CE7688823
:102F8000ADF802006888204400B2ADF806000022C7
:102F900031466846FFF74BFF80B1BDF80000001BCB
:102FA00000B2ADF80000BDF80600204400B2ADF854
:102FB00006003146684626F0E1F85DE701205BE750
:102FC00010B5B1F90030B2F90040A34202DAB1F90C
:102FD000003001E0B2F900300380B1F90230B2F9FB
:102FE0000240A34202DAB1F9023001E0B2F9023044
:102FF0004380B1F90430B2F90440A34202DDB1F9D3
:10300000043001E0B2F904308380B1F90630B2F93E
:103010000640A34202DDB1F9063001E0B2F9063004
:10302000C38010BD2DE9FE43054629F027FE8046EA
:10303000002002901DB19349E868086003E018F091
:1030400081F8904908608F490968086925F0E8FF10
:103050008C480068406920B18A490968486925F0B0
:10306000DFFF88490968C86925F0DAFF85490968E2
:10307000086A25F0D5FF83480068006940B9002040
:1030800080490968A1F8540100BF00BFBDE8FE8374
:1030900026F094FB26F0DAFA7A480068B0F854017A
:1030A00078B3784800680068007CC0F3400008B13D
:1030B00007F024FB4FF480717248006834301FF031
:1030C000DAFF20216F48006800F59A701FF0D3FFE7
:1030D00000206C490968A1F85401404629F0C0FD60
:1030E0000290684800680068006A50B16549096844
:1030F00008686449096809680B6A63490A680299A3
:1031000098471FF0E3FC00F009F900F0D5F85F489C
:10311000006800285CD100BF18F014F8064618F0CB
:1031200044F804461EF094F95849086000227F21B3
:103130005648006825F02DFD00BF002211461046BC
:1031400017F0B8F80090BDF80010084600220146BC
:1031500001904E48006825F0FFFC00BFFF22114699
:10316000104617F0A7F80090BDF80010084600229E
:10317000014601904548006825F0BBFE002203216E
:103180004248006825F08FFE002203213F48006876
:1031900025F039FE002203213C48006825F05CFE42
:1031A000002203213948006825F063FE0022032134
:1031B0003648006825F090FE35A1344800681FF0BD
:1031C00043F900231A4606213048006820F078FDB4
:1031D0003048006829F044FDB0F5967F11D22A48A6
:1031E000006841F28831884249D92B480068029929
:1031F00008442949086029480068401C274908609C
:103200003DE029F03BFD234908601E480068406806
:1032100000684FF47A71B1FBF0F61F48006810B9EE
:1032200001201D4908601D48006808B9344608E0BF
:103230001A4800684FF47A71484317490968B0FB8F
:10324000F1F400201449086014490860B44200D920
:10325000344613480068204411490860114800684A
:10326000401C1049086029F0EFFDC0F164073B469F
:1032700022460DA1054800681FF03EF900BF00BFBF
:1032800004E70000400100203C0100204C01002028
:103290003F00000050010020540100205801002090
:1032A00048010020440100202575204650530A257E
:1032B000752525204350550010B5002416E0C4EBB9
:1032C000C4000C4951F8200030B1C4EBC401094AD4
:1032D00052F821001FF0ACFCC4EBC401054A02EB1C
:1032E00081001C211FF0C7FE601CC4B2042CE6DB69
:1032F00010BD0000480700200146074A106808E09A
:1033000042688A4202D002688A4201D101220276D2
:1033100040690028F4D170471401002010B5054819
:10332000006830B1034800681FF082FC00200149AA
:10333000086010BDCC02002010B50421014801F046
:1033400073F810BD8C06002010B51C21014801F057
:103350006BF810BDA40600202DE9FF4F8BB004468A
:103360009A46199DBAF1000F11D11898B0F5807FD7
:103370000DD10020208060800C98401E00B2A080FB
:103380000D98401E00B2E0800FB0BDE8F08FB5F997
:1033900000004042189948430121C1EB202000B2AF
:1033A0002080B5F902004042189948430121C1EB41
:1033B000202000B26080B5F900100C98401A1899CE
:1033C0004843022101EB202000B2A080B5F9021091
:1033D0000D98401A18994843022101EB202000B2B1
:1033E000E080BAF1000F14D120882988084400B287
:1033F000208060886988084400B26080A08829889D
:10340000084400B2A080E0886988084400B2E080E7
:10341000BAE70A209AFBF0F00A900A98401C09903B
:103420000A9800EB8000AAEB400B0A9800B229F042
:1034300041FF0890099800B229F03CFF07900A98D4
:103440005A3000B229F036FF069009985A3000B27F
:1034500029F030FF0590CBF10A0108984143079805
:1034600000FB0B100A2190FBF1F6CBF10A01069844
:103470004143059800FB0B100A2190FBF1F77611F0
:103480007F11B4F90080B4F9029007FB08F006FB45
:103490001900298801EBA02000B2ADF8100006FB4E
:1034A00008F007FB0900698801EBA02000B2ADF825
:1034B0001200B4F90480B4F9029007FB08F006FB8F
:1034C0001900298801EBA02000B2ADF80C0006FB22
:1034D00008F007FB0900698801EBA02000B2ADF8F5
:1034E0000E00B4F90080B4F9069007FB08F006FB63
:1034F0001900298801EBA02000B2ADF8080006FBF6
:1035000008F007FB0900698801EBA02000B2ADF8C4
:103510000A00B4F90480B4F9069007FB08F006FB32
:103520001900298801EBA02000B2ADF8040006FBC9
:1035300008F007FB0900698801EBA02000B2ADF894
:103540000600BDF90800BDF91010884202DABDF985
:10355000080001E0BDF91000BDF90410BDF90C2010
:10356000914202DABDF9041001E0BDF90C10884265
:103570000BDABDF90800BDF91010884202DABDF976
:1035800008000DE0BDF910000AE0BDF90400BDF926
:103590000C10884202DABDF9040001E0BDF90C000C
:1035A0002080BDF90800BDF91010884202DDBDF988
:1035B000080001E0BDF91000BDF90410BDF90C20B0
:1035C000914202DDBDF9041001E0BDF90C10884202
:1035D0000BDDBDF90800BDF91010884202DDBDF910
:1035E00008000DE0BDF910000AE0BDF90400BDF9C6
:1035F0000C10884202DDBDF9040001E0BDF90C00A9
:10360000A080BDF90A00BDF91210884202DABDF9A6
:103610000A0001E0BDF91200BDF90610BDF90E2047
:10362000914202DABDF9061001E0BDF90E108842A0
:103630000BDABDF90A00BDF91210884202DABDF9B1
:103640000A000DE0BDF912000AE0BDF90600BDF95F
:103650000E10884202DABDF9060001E0BDF90E0045
:103660006080BDF90A00BDF91210884202DDBDF983
:103670000A0001E0BDF91200BDF90610BDF90E20E7
:10368000914202DDBDF9061001E0BDF90E1088423D
:103690000BDDBDF90A00BDF91210884202DDBDF94B
:1036A0000A000DE0BDF912000AE0BDF90600BDF9FF
:1036B0000E10884202DDBDF9060001E0BDF90E00E2
:1036C000E08000BF60E62DE9F74F86B00446206831
:1036D0000590B4F908100798A0EB0108B4F90A1096
:1036E0000898A0EB0109E089B0F5807F13D1206B29
:1036F00000FB08F0E16A01FB1901606A00EBA10B15
:10370000E06A00FB08F0216B01FB0901A06A00EBF5
:10371000A10004902FE0A08980B9A06B00FB08F005
:103720004FEA6018A06B00FB09F04FEA6019606A6D
:1037300000EB080BA06A484404901CE0A06B00FB5F
:1037400008F04FEA6018A06B00FB09F04FEA60191F
:10375000206B00FB08F0E16A01FB1901606A00EBD5
:10376000A12BE06A00FB08F0216B01FB0901A06AB4
:1037700000EBA12004904FEA2B2604980712B4F91D
:103780000400B04203DC002009B0BDE8F08F002E39
:1037900001DA0020F8E7B4F90600B84201DC0020A5
:1037A000F2E7002F01DA0020EEE73420005DC0F3DD
:1037B000800050B33420005DC0F3400078B902258A
:1037C000B4F904007843684306FB050A059800EB4A
:1037D0000A012A4604F114001FF0EFFB2CE0032538
:1037E000B4F904007843684306FB050A6A1E05988D
:1037F00000EB0A0104F114001FF0DFFB0AEB0500E7
:10380000401E0599095CA17516E04FF0000A0025DD
:10381000208A03463AB231B2019004F118001BF03D
:10382000F3FE0290BDF80800A0823AB231B204F172
:1038300018001BF049FEA0753420005D00F0010067
:10384000B0B14FF47F40002100F47C4241EA5211B4
:10385000C0F3C40211430191BDF804201146029146
:10386000A08ABDF80810884201D100208CE700BF73
:10387000E07C08B9012087E70FFA8BF1A187049853
:1038800001B2E18731B24020015339B242200153E5
:10389000C4F844A084F84850204600F003F8039090
:1038A000039871E72DE9F04F8DB00446D4F80090ED
:1038B00094F83C000C9094F83E000B900C98702803
:1038C0000BDA4FF0FF35B4F940002844002800DA45
:1038D00000250C988030C7B213E00C9890280EDDBC
:1038E0000125B4F940002844B4F90410884200DBF3
:1038F00000250C98C0F1FF008030C7B201E0002520
:10390000FF270B9870280CDA4FF0FF36B4F942000D
:103910003044002800DA00260B98803000F0FF08C1
:1039200015E00B9890280FDD0126B4F942003044D1
:10393000B4F90610884200DB00260B98C0F1FF00A6
:10394000803000F0FF0802E000264FF0FF08A08A58
:103950000A90A07D069000200590049003903420EA
:10396000005DC0F3800000285BD094F84800626CD2
:1039700000FB052000EB0901022209A81FF01DFB36
:10398000B4F9040094F848205043626C00FB062010
:1039900000EB0901022208A81FF00FFBB4F9040094
:1039A00094F848205043626C00FB062294F84800CB
:1039B00000FB052000EB0901022207A81FF0FDFA19
:1039C0003420005DC0F3400000287ED094F8480009
:1039D000616C00FB05110844401E19F800000590B9
:1039E000B4F9040094F848104843616C00FB0611D8
:1039F00094F848000844401E19F800000490B4F9F7
:103A0000040094F848104843616C00FB061194F8D8
:103A1000480000FB05110844401E19F800000390FF
:103A200053E0208A0090B4F942204020005B2844F3
:103A300001B204F11800009B1BF0E6FD0990208AFA
:103A400000904220005B304402B2B4F9401004F10F
:103A50001800009B1BF0D8FD0890208A009042209F
:103A6000005B304402B24020005B284401B204F104
:103A70001800009B1BF0C8FD07903420005DC0F3C8
:103A8000400010B3B4F942204020005B284401B24A
:103A900004F118001BF018FD05904220005B304433
:103AA00002B2B4F9401004F118001BF00DFD0490AF
:103AB0004220005B304402B24020005B284401B247
:103AC00004F118001BF000FD0390BA46BB463420F9
:103AD000005DC0F34000E0B306987843C7F1FF0CE7
:103AE000059B03FB0C00C0F3072104987843C7F142
:103AF000FF0C039B03FB0C00C0F3072201FB08F043
:103B0000C8F1FF0302FB0300030AA375022905DCC9
:103B1000022A03DC00200DB0BDE8F08F022901DC91
:103B20004FF00008022A01DC4FF0FF080698022837
:103B300001DC4FF0000A0598022801DC4FF0FF0A73
:103B40000498022801DC4FF0000B0398022803DCE4
:103B500000E002E04FF0FF0B03E0BA46BB46FF2156
:103B6000A175BAF1000F02D1099802900BE0BAF1E9
:103B7000FF0F02D10A98029005E05246DDE90910D4
:103B800016F070FC0290BBF1000F02D10798019073
:103B90000BE0BBF1FF0F02D10898019005E05A46F7
:103BA000DDE9071016F05EFC0190B8F1000F03D1BB
:103BB000BDF80400A0820FE0B8F1FF0F03D1BDF8FB
:103BC0000800A08208E04246DDE9011016F04AFC38
:103BD0000090BDF80000A08201209CE72DE9F05F75
:103BE0000446B4F9080001026162B4F90A00010256
:103BF000A162B4F90C000A2190FBF1F56F1CB4F935
:103C00000C0005EB8501A0EB4106684200B229F0EB
:103C100051FB8046784200B229F04CFB8146C5F149
:103C20005A0000B229F046FB8246C7F15A0000B2A2
:103C300029F040FB8346C6F10A0000FB08F009FBAF
:103C400006000A2190FBF1F1E162C6F10A0000FBD7
:103C50000AF00BFB06000A2190FBF1F12163E06AF8
:103C60004111E162206B41112163A07C1BF067FED2
:103C70003421095D60F3000134200155A07C1BF064
:103C800041FE3421095D60F3410134200155A07CDF
:103C9000042805D0A07C052802D0A07C062807D1E6
:103CA0003420005D20F00400001D3421085505E09B
:103CB0003420005D20F00401342001552168216288
:103CC000A06920F0E000A061A17CA06961F304007C
:103CD000A061A188A06961F39420A061E188A06936
:103CE00061F35F50A061E08900EBD071491001F5EC
:103CF000001191FBF0F2A263FF21A175208AA0823E
:103D0000BDE8F09F2DE9F74F81461746002459483A
:103D1000008820B900BF00BF0020BDE8FE8F5648D4
:103D2000066800251AE005EB450000EBC50006EB30
:103D30008000806A514988420EDD05EB450000EBAA
:103D4000C50006EB8000806A401E05EB450101EBD3
:103D5000C50106EB81018862681C85B24548008870
:103D60008542E0DB002534E0BDF8040005EB4501A9
:103D700001EBC50106EB81010989884227D105EBDA
:103D8000450000EBC50006EB8000C068B8421ED1BC
:103D900005EB450000EBC50006EB80004168484696
:103DA0001BF034FD98B105EB450000EBC50006EBB8
:103DB0008004A16AE0690844A062A06AB0F57A7F35
:103DC00002DD4FF47A70A06200BF00BF05E0681CFE
:103DD00085B2284800888542C6DB00BF0CB120466A
:103DE0009BE73446012511E005EB450000EBC500DB
:103DF00006EB8000806AA16A884205DA05EB45007F
:103E000000EBC50006EB8004681C85B219480088E9
:103E10008542E9DB606820B120461CF0E3F900BF71
:103E200001E000BF00BF28F029FF82463B4649461B
:103E30002046019A1CF038FA8046B8F1000F0AD1EA
:103E400000BF00BF2C2120461FF015F94FF00040A5
:103E5000A062002061E70020A062E06918B9504626
:103E600028F0FEFEE061E06908B90120E06120462B
:103E700053E7000060010020C00200200100008024
:103E800010B51421114800F0CFFA1CF0BFF9044618
:103E900000BF1CB900BF00BF00BFFEE700BF14B9E0
:103EA00000BF00BF10BD0A4920461CF097FA09491F
:103EB00020461CF095FA084920461CF093FA074961
:103EC00020461CF089FA00BFECE70000B006002095
:103ED0002DFA0108FDFE010819010208F5F9010893
:103EE00070B504460D46102128461FF0C4F820681E
:103EF0000078012804D1208A2880608A68800CE03C
:103F000020680078022802D1E068686005E0206837
:103F10000078042801D10A2068602068406820B138
:103F2000206829464268904701E000BF00BF70BD8D
:103F30002DE9FE430446A66AEEB9A18A208A084408
:103F400001B2A182E18A608A084401B2E18220467E
:103F50000EF056FB06460EB9BDE8FE83204611F072
:103F60007BFC0022092130461AF028FE6078C0F35D
:103F7000400000B1F0E7208A10B9608A002870D0B4
:103F800000200290019094F83C0000F00F000328FC
:103F900012D1304621F096FA0746304621F01AFA3F
:103FA000804603200090B4F910103B46424630464C
:103FB0000DF0AAFE029012E0304621F005FB074604
:103FC000304621F079F980460C200090B4F91210A7
:103FD00043463A4630460DF097FE019000BF30460A
:103FE00021F0CAF9054605F0010028B9BDF908001D
:103FF000002801DD0020029005F0020028B9BDF97B
:104000000800002801DA0020029005F0040028B919
:10401000BDF90400002801DD0020019005F0080032
:1040200028B9BDF90400002801DA0020019001AA96
:1040300002A920462CF0BCFA0023BDF90420BDF9EA
:104040000810304624F032F9A08ABDF80810084460
:1040500001B2A182E08ABDF80410084401B2E182F5
:1040600000BF00BF78E72DE9F84F0446D4F828B028
:10407000BBF1000F01D1BDE8F88F94F83C0000F0CF
:104080000F0000B9F7E71CF09DFD06463068477E3B
:104090004021584622F07CFE10B900216183218323
:1040A000584621F07DFA8046584621F083FA0546AD
:1040B00094F83C0000F00F000C2843D1002121832C
:1040C0001DBBB4F91A00C7F164014843642190FB99
:1040D000F1F001B26183584621F0EEF8814658466E
:1040E00021F072FA82460C200090B4F91A104B4667
:1040F000524658460DF008FE6083B4F91A2000239A
:104100001946584624F0D2F869E020462CF0A7FA68
:104110000090002161836A4620462CF049FABDF9DF
:10412000003041F6FF72514258460EF001FC8146C4
:10413000BDF80000484402B201230021584624F093
:10414000B5F84CE094F83C0000F00F00032846D18D
:1041500000216183B8F1000F23D1B4F91800C7F131
:1041600064014843642190FBF1F001B22183584679
:1041700021F030F98146584621F0A4F98246032007
:104180000090B4F9181053464A4658460DF0BCFD4D
:104190002083B4F9181000231A46584624F086F8F4
:1041A0001DE020462CF040FA0090002121830022DF
:1041B000694620462CF0FCF9BDF9003041F6FF724B
:1041C000514258460EF01AFB8146BDF800004844A3
:1041D00001B201230022584624F068F800BF208B6A
:1041E000002860D1608B00285DD11DBB584621F0AE
:1041F000EBF98146584621F05FF88246B9F1000F8D
:1042000002DCBAF1000F14DDB9F1000F06DA012368
:104210004A460021584624F049F80AE0BAF1000F56
:1042200007DA0123CAF1000002B20021584624F047
:104230003DF800BFB8F1000F23D1584621F0CAF86D
:104240008146584621F03EF98246B9F1000F02DC62
:10425000BAF1000F14DDB9F1000F06DA01230022D4
:104260004946584624F022F80AE0BAF1000F07DA6E
:1042700001230022CAF1000001B2584624F016F8CA
:1042800000BF32460A2158461AF098FC6078C0F305
:10429000400000B1EFE694F83C0020F00F0184F8F4
:1042A0003C100021A16200BFE5E62DE9FF41044674
:1042B0000F4614B916F046FF04460CB9BDE8FF815D
:1042C0001FB90020A4F85401F8E70020ADF8080059
:1042D000ADF80A00204616F04DFF401E00B2ADF8C2
:1042E0000C00204616F0ACFF401E00B2ADF80E00E8
:1042F00002AA39466846FEF783FC064606B9DDE7A2
:104300002068007CC0F3400060B1029860630398AD
:10431000A0630120A4F85401606810B1606828F01F
:104320004FFECBE72068806918B120686946826932
:10433000904700250BE004F1340000EBC50100229A
:104340006846FEF79EFC00B1B8E7681C85B2B4F879
:104350005401A842EFDCB4F85401202809DAB4F87B
:10436000542104F1340101EBC200694613F05FFBF4
:104370000BE00020A4F85401B4F8542104F13401F6
:1043800001EBC20002A913F052FBB4F85401401C27
:10439000A4F85401606810B1606828F011FE00BFF5
:1043A0008CE770B50546284600F013F80446002651
:1043B0000CE02146284600F024F80646214628460F
:1043C00000F086F820461EF033FC3446002CF0D175
:1043D00070BD014609B9002070474868FCE770B518
:1043E000064600243046FFF7F4FF054605E0641C4E
:1043F0002946304600F005F80546002DF7D1204645
:1044000070BD02460B461068001D034418687047D3
:1044100002460B461068034418687047014609B904
:10442000002070478868FCE7002242608260CA1C56
:1044300022F003010160704770B50446216801F164
:1044400008001EF027FB0546A5B10022294620469C
:104450002AF0CAF92946204662682AF0B7F960684E
:1044600020B12A46204661682AF0BEF96560A0683E
:1044700000B9A560284670BD70B50446216801F1F9
:1044800008001EF007FB0546A5B10022294620467C
:104490002AF09CF929462046A2682AF0A5F9A068CE
:1044A00020B12A462046A1682AF090F9A5606068EC
:1044B00000B96560284670BD014609B90120704702
:1044C000486818B9886808B90120F8E70020F6E7BD
:1044D0002DE9F04104460D460CB9BDE8F0812046B7
:1044E000FFF777FFA8420FD129462046FFF789FF43
:1044F0006060606810B90020A0602FE000222046B4
:1045000061682AF071F929E02046FFF787FFA84289
:104510000FD129462046FFF77BFFA060A06810B9A5
:10452000002060601AE000222046A1682AF04EF9BF
:1045300014E029462046FFF76BFF06462946204631
:10454000FFF75FFF07463A46314620462AF03EF91C
:104550003246394620462AF047F900BF00BFBCE783
:1045600010B504462068806818B12068214682682A
:1045700090472068006828B12068006820602046C5
:10458000FFF7EEFF10BD0146886818B18868B0F9E2
:10459000160070470020FCE72DE9F04F93B0054668
:1045A0008B4691469A461C9E688C20F00400001DA4
:1045B0006884A5F8209032895946284622F064F98B
:1045C0001290A5F820A032895946284622F05CF9BD
:1045D0001190688C20F004006884DDE91110884295
:1045E0000CD1DDE91110884208D1BDF84800BDF8B2
:1045F0004410884202D113B0BDE8F08FA5F8209096
:1046000032895946284622F03FF91290A5F820A099
:10461000594628460FF0B9FE10903189109A10685B
:10462000129A26F078FE3089602833D147F6FF7160
:104630001298884202D0119888422BD1284622F045
:104640004AFB0F9000EBD0704710284622F043FB46
:104650000F9000EBD0704FEA600847F6FF71129898
:10466000884208D1781C08F10101884200DA01E093
:1046700008F10100129047F6FF711198884208D1A5
:10468000781C08F10101884200DA01E008F101001C
:10469000119000BF2448FFF7CFFE044600BF1CB9AD
:1046A00000BF00BF00BFFEE700BF04B9A3E7129838
:1046B000E06011982061ACB325603089A080C4F817
:1046C00008B0684612F06EFB2146684612F029FCDD
:1046D0001649684612F0E9FB1548029000BF1549DB
:1046E000684612F0F4FBFF220021684612F005FC38
:1046F0003188684612F0F5FB7188684612F0D0FBED
:10470000F068069000BF6846002190F83E2061F3F3
:10471000000280F83E2000BF30690590684612F024
:1047200019FC00BF00BF66E7BC060020C14A0308B1
:104730006D4D03089D4C030810B514210148FFF787
:1047400073FE10BDBC0600202DE9FE4F04460F4647
:1047500090464FF0000900256BE1E06800EBC500D2
:104760004068C0F3406000B162E1E16801EBC5015F
:10477000496821F07F4024F050FC064626EA0700F5
:1047800008B9012000E00020029026EA080008B9DC
:10479000012000E000200190DDE90101814272D09A
:1047A000E06850F835A04FF0000B6A4641F6100162
:1047B000504626F049FA10B14FF0010BA9E06A46C5
:1047C00041F61101504626F03FFA10B14FF0010BAF
:1047D0009FE06A4641F61201504626F035FA10B1C4
:1047E0004FF0010B95E06A4641F61301504626F062
:1047F0002BFA10B14FF0010B8BE06A4641F6150120
:10480000504626F021FA10B14FF0010B81E06A46C4
:1048100041F61401504626F017FA10B14FF0010B83
:1048200077E06A4641F26901504626F00DFA10B170
:104830004FF0010B6DE06A4643F20C01504626F042
:1048400003FA10B14FF0010B63E06A4643F20D0129
:10485000504626F0F9F910B14FF0010B59E06A46C5
:1048600041F20101504626F0EFF910B14FF0010B73
:104870004FE06A4641F20401504626F0E5F918B1CE
:104880004FF0010B45E0D2E06A4641F2020150468A
:1048900026F0DAF910B14FF0010B3AE06A4641F226
:1048A0000301504626F0D0F910B14FF0010B30E073
:1048B0006A4641F20501504626F0C6F910B14FF0A4
:1048C000010B26E06A4641F20601504626F0BCF98B
:1048D00010B14FF0010B1CE06A4641F23201504624
:1048E00026F0B2F910B14FF0010B12E06A4643F620
:1048F0000F01504626F0A8F910B14FF0010B08E067
:104900006A4643F60E01504626F09EF908B14FF074
:10491000010BBBF1000F02D00320BDE8FE8F6A46F9
:1049200040F60A01504626F08FF910B14FF0020907
:104930007CE06A4640F60B01504626F085F910B13E
:104940004FF0020972E06A4643F60F01504626F026
:104950007BF910B14FF0020968E06A4643F60E0198
:10496000504626F071F910B14FF002095EE06A4638
:1049700040F63C01504626F067F910B14FF00209AD
:1049800054E06A4640F63D01504626F05DF910B10C
:104990004FF002094AE06A4640F63A01504626F0D6
:1049A00053F910B14FF0020940E06A464FF4046138
:1049B000504626F049F910B14FF0020936E06A4638
:1049C00040F64501504626F03FF910B14FF002097C
:1049D0002CE06A4640F64101504626F035F910B108
:1049E0004FF0020922E06A4640F64201504626F0A6
:1049F0002BF910B14FF0020918E06A4640F6430166
:104A0000504626F021F910B14FF002090EE06A4637
:104A100040F64901504626F017F910B14FF002094F
:104A200004E0B9F1000F01D14FF0010900BF00BF50
:104A30006D1C608CC0F3C500A8423FF68EAE4846A0
:104A40006BE700000148006870470000400100204B
:104A500070470146C1F30412072A00DD0722D0B2D5
:104A60007047000010B518210348FFF7DDFC012056
:104A700028F0B8F910BD0000680600202DE9F041CB
:104A800005460F4616460DB9BDE8F0812846FBF7EE
:104A9000C0FB8046394628460A4A126890470746B6
:104AA000E8193146074A1268904706463C4603E03B
:104AB000A019285C2855641CA8EB0600A042F7D278
:104AC00000BFE1E7080300202DE9F04106460C464F
:104AD00017461D4629463046084A1268904720600E
:104AE000206830B1296888190021044A126890476B
:104AF00000E000203860BDE8F081000000030020E5
:104B00002DE9F04387B00446884691461F460E9D26
:104B10001CB9002007B0BDE8F083207808B9002058
:104B2000F8E7B8F1000F01D10020F3E705F002002B
:104B300010B905F0040078B1002000E0401C215CB1
:104B40000A2905D0215C0D2902D0215C0029F5D16C
:104B5000215C01B1401CDDE705F0020008B141F61F
:104B6000FF7700200690059037E00020049005981C
:104B700008B9012000E0002006A904AACDE90052EE
:104B8000CDE90210059960183B464A46414628F097
:104B9000C9FB06460498381A07B23EB9059820B9F1
:104BA00005A92046144A126890471BE00598304436
:104BB000059020780A2802D020780D2800D111E035
:104BC0000598205C0A2803D00598205C0D2803D1A5
:104BD0000598401C059005E000BF0598205C08B1D1
:104BE000002FC2DC00BF059820B905A92046024A63
:104BF0001268904705988DE7000300202DE9F047E3
:104C000006468846174606B10FB9BDE8F08730461C
:104C1000FBF7FFFA81463846FBF7FBFA044604B976
:104C2000F3E704EB090A414630460B4A1268904705
:104C30008046554603E0281B305C70556D1E08EB1E
:104C40000400A842F7D906EB0800224639461EF0B8
:104C5000CCF900BFD9E7000008030020024600207D
:104C60000FA31B788B4211D113781BB9012313704A
:104C700001200BE01378012B02D10023137005E013
:104C80001378022B02D10023137001201378012B1B
:104C900004D1202901D102231370012070470000A4
:104CA0002300000073B582B0064603980190324697
:104CB00000210846019B28F051FE05460020019086
:104CC0000024681C1DF0E6FE044600BF1CB900BFAE
:104CD00000BF00BFFEE700BF14B9002004B070BDE4
:104CE000002060553246691C2046039B28F036FEA2
:104CF0002046F3E72DE9F04781460E4614461F464D
:104D0000DDF820A035461BE0600800FB075529466A
:104D10004846D047B0F1000809DD04F0010080F0FA
:104D20000100C0EB5404E8190546064608E0B8F156
:104D3000000F02DA6408354602E02846BDE8F08735
:104D4000002CE1D10020F9E72DE9FF4F85B0834623
:104D5000DDE9158ADDE91349DDE91775129E05F0D5
:104D60000200F8B94FB105F0010030B1B9F1000F00
:104D700002D105F00C0000B17F1E03E03022204676
:104D8000641C3254544501D2202CF7D303E0302266
:104D90002046641C325405F0010018B1BC4201D217
:104DA000202CF4D305F01000B0B305F4806050B9A6
:104DB0004CB1544501D0BC4205D1641E1CB1B8F1C0
:104DC000100F00D1641EB8F1100F09D105F02000BA
:104DD00030B9202C04D278222046641C325415E0CD
:104DE000B8F1100F09D105F0200030B1202C04D209
:104DF00058222046641C325408E0B8F1020F05D155
:104E0000202C03D262222046641C3254202C03D270
:104E100030222046641C3254202C16D2B9F1000FE7
:104E200004D02D222046641C32540EE005F004000C
:104E300020B12B222046641C325406E005F0080005
:104E400018B120222046641C3254CDE90275CDE908
:104E50000064584606A90EC900F0A2F809B0BDE8E2
:104E6000F08F2DE9FF4F8FB08046DDE91FABDDE904
:104E70001D96219D1C9C00270CB925F0100505F4FA
:104E8000806000B1E4B100BFB4FBF6F106FB114154
:104E9000C8B20A2802DA00F1300107E005F020016B
:104EA00009B1412100E0612101440A39CBB2394600
:104EB0007F1C07AA5354B4FBF6F40CB1202FE3D3A4
:104EC00007A8CDE904AB8DE881020396069540461C
:104ED00010A90EC9FFF738FF13B0BDE8F08F2DE918
:104EE000FF4F8FB0DDE9217BDDF89080209EDDE96A
:104EF0001C454FF00009002184EA01006940084385
:104F000001D128F0100808F4806028B1002184EA5B
:104F10000100694008432DD000BF32463B46204681
:104F20002946FBF721F902F0FF0ABAF10A0F02DA6B
:104F30000AF1300007E008F0200008B1412000E04D
:104F4000612050440A38C2B2484609F1010907A954
:104F50000A5432463B4620462946FBF705F90446EB
:104F60000D46002184EA01006940084302D0B9F1EE
:104F7000200FD2D32398CDE9036BCDE9050807A90B
:104F80001E98CDE9001902900FA80FC8FFF7DCFEAC
:104F900013B0BDE8F08F9A4200D288547047704732
:104FA0002DE9FF5F05461446DDE90EA6DDE9108711
:104FB000A34607F0020078B907F0010060B9B146D6
:104FC00007E02246641C2020039B0199A84709F1B1
:104FD0000109C145F5D300BF08E02246641C711EDB
:104FE0000E461AF80100039B0199A847002EF4D140
:104FF00007F0020050B105E02246641C2020039B0C
:105000000199A847A4EB0B004045F5D3204604B016
:10501000BDE8F09F2DE9FF4F8BB08846054600267E
:1050200006E025280BD0DDE90D1290476D1C761C9B
:1050300028780028F5D10FB03046BDE8F08F002465
:10504000A146A2460122AE4900E0044315F8013F03
:10505000203B02FA03F00842F7D128782A2810D022
:105060006FF02F022878A0F13001092915D809EB3B
:10507000890102EB410144F0020400EB01096D1CBF
:10508000F0E758F8041B5FEA010903D544F4005423
:10509000C9F1000944F002046D1C28782E2817D1AC
:1050A00015F8010F44F004042A280ED06FF02F02E7
:1050B0002878A0F1300109290AD80AEB8A0102EB0D
:1050C000410100EB010A6D1CF2E758F804AB6D1CBE
:1050D00028786C280FD006DC4C2817D068280DD013
:1050E0006A2814D104E0742810D07A280FD10DE07A
:1050F00044F400140AE044F4801401E044F4401441
:105100006978814202D104F580146D1C6D1C2878E9
:10511000692865D006DC00288DD0632827D0642854
:1051200006D15DE06E2808D073282AD0752877D084
:10513000DDE90D129047761CE0E0C4F3025002282E
:1051400009D003280DD0D8F8001004280DD00E6027
:1051500008F10408D2E0D8F80010F217C1E90062A3
:10516000F6E7D8F800100E80F2E70E70F0E718F8B6
:10517000041B8DF8001000208DF80100EB46012083
:1051800003E058F804BB4FF0FF3061074FF0000711
:1051900001D40AE07F1C57450DDA8742FADB1BF881
:1051A00007100029F6D106E07F1C8742FCDB1BF8C4
:1051B00007100029F8D1DDE90D23A9EB070081468E
:1051C000214600F0B1F83044C61904E0DDE90D12C3
:1051D0001BF8010B90477F1EF8D22146484688E015
:1051E00058F8040BC4F302514FF00A0B032900D105
:1051F00000B2042900D140B2002802DA40422D2139
:1052000002E0210505D52B218DF82410012104E0B1
:1052100006E0E10710D02021F6E708AF089113E07F
:1052200058F8040BC4F302514FF00A0B032900D1C4
:1052300080B2042900D1C0B20021EEE75946FBF745
:105240001FFA303107F8011D0028F7D1ADEB070038
:1052500000F1200B600702D524F4803401E04FF008
:10526000010ADA4502DDAAEB0B0000E000208246CD
:1052700000EB0B0108980144A9EB01000A90E00340
:1052800006D4DDE90D2321460A9800F04DF80644C6
:105290004FF0000908E009A911F80900DDE90D1235
:1052A000904709F10109761C08998945F3DBE00371
:1052B0000CD5DDE90D2321460A9800F035F80644A7
:1052C00004E0DDE90D1230209047761CBAF10001B0
:1052D000AAF1010AF5DC05E0DDE90D1217F8010B72
:1052E0009047761CBBF10001ABF1010BF4DC0A988E
:1052F0002146DDE90D2300F005F806446D1C97E614
:10530000092801002DE9F041044600251E461746F4
:10531000880404D405E039462020B0476D1C641E83
:10532000F9D52846BDE8F0812DE9F0410446002575
:105330001E469046C80301D5302700E02027880488
:1053400004D505E041463846B0476D1C641EF9D5CA
:105350002846BDE8F0810A68531C0B601070704746
:105360002DE9FF4F8BB0074600250C9800B9FA4F86
:10537000EAE20E98007825280AD02A466D1C0E997C
:105380000878DDE90C13B8470E98401C0E90DBE25C
:105390000E98401C0E90002400BF0E9800782B2819
:1053A00019D004DC20281ED023282CD123E02D285E
:1053B00009D0302827D144F001040E98401C0E90EB
:1053C00001200A9022E044F002040E98401C0E9046
:1053D00001200A901AE044F004040E98401C0E903C
:1053E00001200A9012E044F008040E98401C0E9030
:1053F00001200A900AE044F010040E98401C0E9020
:1054000001200A9002E000200A9000BF00BF0A9825
:105410000028C2D180460E990878FDF7CDFB20B157
:105420000EA8FDF7B4FB804612E00E9800782A28FB
:105430000ED1189901C91891002804DA44F0020429
:10544000C0F1000800E080460E99491C0E9100BF93
:105450004FF000090E9800782E281FD144F4806484
:105460000E98401C0E900E990878FDF7A5FB20B110
:105470000EA8FDF78CFB814610E00E9800782A28D4
:105480000CD1189901C91891002801DD014600E0EE
:10549000002189460E99491C0E9100BF0E98007894
:1054A0006C280AD004DC682816D06A2835D128E098
:1054B000742820D07A2830D129E044F480740E98E2
:1054C000401C0E900E9800786C2804D144F40074AF
:1054D0000E98401C0E9021E044F080040E98401C71
:1054E0000E900E980078682804D144F040040E987D
:1054F000401C0E9012E044F480740E98401C0E90F4
:105500000CE044F400740E98401C0E9006E044F445
:1055100080740E98401C0E9000E000BF00BF0E98F3
:10552000007869281DD00EDC622821D006DC2528F1
:105530007ED050281AD058287BD115E0632879D026
:105540006428F9D10CE0732875D004DC6F280ED0E4
:105550007028F1D109E0752804D07828ECD102E058
:1055600000BF00BF00BF00BF00BF00BF00BF00BF43
:105570000E980078782803D00E980078582801D12A
:10558000102623E00E980078702803D00E9800783B
:1055900050280CD1102644F0100444F480740E9866
:1055A0004078562812D10E98401C0E900EE00E98AE
:1055B00000786F2801D1082608E00E98007862284C
:1055C00001D1022602E00A2624F010040E98007889
:1055D000582803D00E980078502801D144F02004B8
:1055E0000E980078692805D00E980078642801D0BC
:1055F00024F00C0404F4806008B124F001040E9837
:105600000078692803D00E98007864287CD104F4CF
:105610000070B8B31898C01D20F007001890D0E9AA
:1056200000AB189A083218920020CDE9069803E0E2
:1056300073E17CE1F2E01CE1CDE904600894BAEB8F
:1056400000017BEB000001DA012000E000200021D6
:1056500002900846B1EB0A0170EB0B0002DA5046EB
:10566000594605E000200146B0EB0A0061EB0B0152
:10567000CDE900012A463846DDE90C13FFF72FFC7F
:105680000546C7E0FFE704F48070D0B1189850F8E1
:1056900004AB18904FEADA70CDE9039802960594AE
:1056A000BAF1000F01DD514601E0CAF10001CDE978
:1056B00000102A463846DDE90C13FFF7D2FB0546F9
:1056C000A8E004F0400028B1189810F8041B1890C6
:1056D000C8B20DE004F0800028B1189830F8041B1F
:1056E000189008B204E0189800681899091D1891DC
:1056F00082464FEADA70CDE9039802960594BAF132
:10570000000F02DD514602E00BE0CAF10001CDE9D5
:1057100000102A463846DDE90C13FFF7A2FB0546C8
:1057200078E00E980078562818D1189850F804ABF5
:105730001890DAF804000068099009980090DAF8E7
:1057400000300D98421B0C9841193846FFF708FEAF
:105750000544002009905DE09F4F000804F40070AC
:10576000D0B11898C01D20F00700CDE90698089424
:1057700018900020CDE904600290189903C9189A86
:1057800008321892CDE900012A463846DDE90C13AB
:10579000FFF7A5FB05463DE004F4807098B10022B8
:1057A000CDE9039802960594189800681899091D88
:1057B000CDE9000218912A463846DDE90C13FFF7BF
:1057C00050FB054626E004F0400028B1189810F878
:1057D000041B1890C8B20DE004F0800028B118989E
:1057E00030F8041B189088B204E0189800681899E3
:1057F000091D189182460020CDE900A0CDE903984B
:10580000029605942A463846DDE90C13FFF729FB7A
:10581000054600BF0E98401C0E9093E0012604F050
:10582000020050B905E02A466D1C2020DDE90C136A
:10583000B8473046761C4045F5D3189911F8043B1B
:10584000D8B22A466D1C1891DDE90C13B84704F054
:10585000020050B105E02A466D1C2020DDE90C1342
:10586000B8473046761C4045F5D30E98401C0E9044
:1058700068E0189850F804AB18905046B9F1000F42
:1058800001D0494601E04FF0FF310A46014600E0F1
:10589000491C0B781BB1131EA2F10102F8D10E1A9C
:1058A00004F4806028B14E4501D2304600E04846FD
:1058B000064604F0020050B905E02A466D1C20207F
:1058C000DDE90C13B8473046761C4045F5D306E0B9
:1058D0001AF8010B2A466D1CDDE90C13B8479AF83B
:1058E000000040B104F480600028F1D0B9F100005C
:1058F000A9F10109ECD104F0020050B105E02A46FB
:105900006D1C2020DDE90C13B8473046761C40455D
:10591000F5D30E98401C0E9014E02A466D1C2520ED
:10592000DDE90C13B8470E98401C0E900AE02A4699
:105930006D1C0E990878DDE90C13B8470E98401CD1
:105940000E9000BF00BF00BF0E98007800287FF4C3
:1059500010AD0D98854201D2284601E00D98401EF9
:1059600002460020DDE90C13B84728460FB0BDE819
:10597000F08F2DE9F04104460E46002774B1314600
:10598000204600F02DF80546B5F5004F05D20C2D48
:1059900001D9284600E00C20074600BF3846BDE884
:1059A000F081024600BF481E084018B100BF00BF8A
:1059B00000BFFEE700BF481E1040101A704710B528
:1059C00002464B1E13444C1E23EA040000BF4B1E2C
:1059D0000B401BB100BF00BF00BFFEE700BF10BD02
:1059E000024600BF481E084018B100BF00BF00BFFC
:1059F000FEE700BF481E10444B1E9843704700004E
:105A00002DE9F04180460E4644460120608600257F
:105A100000270DE056F8270025A1FAF701FC10B188
:105A2000681C85B202E0608E401C6086781C87B2DC
:105A300056F8270020B156F8270000780028E9D151
:105A4000208EA84201D1BDE8F081A06A20B1A06AF1
:105A50001DF0EEF80020A062E06A20B1E06A1DF0BF
:105A6000E7F80020E062E8001DF014F8A06200BF33
:105A7000A06A18B900BF00BF00BFFEE700BF680002
:105A80001DF008F8E06200BFE06A18B900BF00BF6F
:105A900000BFFEE700BFA06A08B1E06A00B90025B8
:105AA0006900E06A1DF0E7FA258600BFCBE7000039
:105AB0000A00000001B59CB004211C9822F0B0FD42
:105AC0001C981EF02FFE1B9001211B9822F0BAFD9E
:105AD000FC4AFD491B9822F0F5FD42F264011B9837
