:020000040800F2
:10000000D8FB00204501000841150008670C0008D6
:100010003D150008BF080008F51F0008000000009B
:10002000000000000000000000000000911B00081C
:100030001B0A000800000000C91500087D1C00080C
:100040005F0100085F0100085F0100085F01000810
:100050005F0100085F0100085F0100085F01000800
:100060005F0100085F0100085F0100085F010008F0
:100070005F0100085F0100085F0100085F010008E0
:100080005F0100085F0100085F0100085F010008D0
:100090005F0100085F0100085F0100085F010008C0
:1000A0005F0100085F0100085F0100085F010008B0
:1000B0005F010008491D00085F0100085F0100089A
:1000C0005F0100085F0100085F0100085F01000890
:1000D0005F0100085F0100085F0100085F01000880
:1000E0005F0100085F0100085F0100085F01000870
:1000F0005F0100085F0100085F0100085F01000860
:100100005F0100085F0100085F0100085F0100084F
:100110005F0100085F0100085F0100085F0100083F
:100120005F0100085F0100085F0100085F0100082F
:10013000DFF80CD000F086FB00480047E90D03080B
:10014000D8FB00200648804706480047FEE7FEE748
:10015000FEE7FEE7FEE7FEE7FEE7FEE7FEE7FEE777
:10016000811C0008310100082DE9F05F05460020E0
:1001700092469B4688460646814640241BE0284618
:1001800041464746224600F0B8FA53465A46C01A3E
:10019000914110D311461846224600F09FFA2D1ABD
:1001A00067EB01084F4622460120002100F096FA35
:1001B00017EB00094E41201EA4F10104DFDC484684
:1001C00031462A464346BDE8F09F40EA01039B07BB
:1001D00003D009E008C9121F08C0042AFAD203E0BC
:1001E00011F8013B00F8013B521EF9D27047D2B220
:1001F00001E000F8012B491EFBD270470022F6E710
:1002000010B513460A4604461946FFF7F0FF20468C
:1002100010BD10B5044604E00B7800F8013B03B1B3
:10022000491C521EF8D2204610BD421C10F8011B7A
:100230000029FBD1801A704710B5002200E0521C43
:10024000835C8C5CA34201D1002BF8D1D8B2E1B21F
:10025000401A10BD30B504460020034600E05B1C88
:10026000934203D2E05CCD5C401BF8D030BD034626
:1002700011F8012B00F8012B002AF9D1184670471C
:10028000F0B480EA0102D40F4200B2EB410F02D277
:100290000246084611464A0042D0C30DDDB2C1F302
:1002A000C752AD1A202D35DAC1F3160141F4000210
:1002B00004B15242C5F1200602FA06F12A41104467
:1002C000B3EBD05F23D0C4B1012DA0EBC35009DC48
:1002D000F0BC4FF0004202EAC352DBB200F500006E
:1002E00000F024BA400000F1807000EBC350A0F190
:1002F000807040EAD170490009E0490841EAC071C4
:10030000A0EBC35000F50000400800EBC350F0BC68
:1003100000F003BA6142012202EB4101001BF6E743
:10032000F0BC704781F00041AAE780F00040A7E7E9
:1003300080EA010210B502F00043400022D04A00DA
:100340001FD0010E01EB1261C0F35600C2F356023A
:1003500040F4000042F40002A0FB022000047F39B8
:10036000140400D0401C50EA124001D44000491E41
:10037000C2B20C0604EBD010401C4008802A02D008
:1003800003E0002010BD20F00100002900DA002069
:10039000184310BD30B480EA010202F0004530F08D
:1003A000004221F0004013D090B1C30DD40DC2F330
:1003B0001601C0F31600E41A41F4000140F40002F3
:1003C0007D34914201D3641C00E04900002C02DA24
:1003D00030BC002070474FF400000023914201D34D
:1003E000891A034340084FEA4101F7D151B19142C4
:1003F00002D14FF0004105E002D24FF0010101E0CF
:100400006FF0010103EBC450284430BC00F085B903
:100410002DE9FE4F81EA030404F0004421F000417D
:1004200000944FF0000B23F0004350EA01045ED02B
:1004300052EA03045BD0C3F30A54C1F30A552C44B7
:10044000A4F2F3340194A0FB0254C1F3130141F46C
:100450008011C3F3130343F4801301FB024400FB38
:10046000034E840A970A44EA815447EA8357A4FB5F
:10047000076802958D0A05FB07854FEA932C04FB5C
:100480000C542705029D4FEA065847EA1637B5EB8C
:1004900008056EEB070C870E920E47EA811742EAB9
:1004A0008312A7FB0201B6EB0B0164EB00042B0DDA
:1004B00043EA0C335E1844EB1C50DA465146E7FB26
:1004C0000201C5F313044FEA0B3343EA14534FEA16
:1004D0000432019C43EA0603A4F10C040294009C3C
:1004E000CDE900B400F05FF903B0BDE8F08F002063
:1004F0000146F9E72DE9F04D81EA030404F0004BD1
:1005000021F0004514464FF0000A23F0004150EA64
:10051000050220D054EA01021DD0C5F30A57024655
:10052000C5F31303C1F31300C1F30A5640F4801559
:1005300043F48013A7EB0608101BD64608F2FD38DB
:1005400073EB050002D308F1010801E092185B414A
:10055000B8F1000F03DA00200146BDE8F08D00205D
:100560004FF48011064684460EE0171B73EB050717
:1005700005D3121B63EB050306434CEA010C490843
:100580004FEA300092185B4150EA0107EDD152EA80
:10059000030012D082EA040083EA0501084305D073
:1005A000101BAB4106D20122002306E000224FF0CF
:1005B000004302E06FF0010253101AEB06004CEB0F
:1005C000085110EB0A0041EB0B01BDE8F04D00F0C3
:1005D000DBB8C10F80EAE0700844CA079623002107
:1005E00000F0A4B800F0004220F00040C10DC0F3BC
:1005F000160040F400007F2901DA00207047962998
:1006000003DCC1F19601C84001E096398840002A18
:10061000F4D04042704720F00040C10DC0F31600F6
:1006200040F400007F2901DA00207047962903DC9E
:10063000C1F19601C840704796398840704700F074
:10064000004230F000400AD0C10D01F56071C0F3E6
:10065000160042EA0151C2084007114370470020CA
:100660000146704701F0004330B421F0004150EAE8
:10067000010206D00A0DA2F56072C1F31301002A2F
:1006800002DC30BC00207047440F44EAC104C100C2
:10069000E01830BC00EBC25000F03FB8002801DB8E
:1006A000C0F10040002901DBC1F1004181427047E7
:1006B00030B50B46014600202022012409E021FA32
:1006C00002F59D4205D303FA02F5491B04FA02F52F
:1006D0002844151EA2F10102F1DC30BD202A04DB02
:1006E000203A00FA02F1002070479140C2F1200345
:1006F00020FA03F3194390407047202A04DB203A84
:1007000021FA02F00021704721FA02F3D040C2F131
:10071000200291400843194670470029A8BF70473E
:10072000401C490008BF20F00100704710B4B0FA27
:1007300080FC00FA0CF050EA010404BF10BC7047C2
:1007400049B1CCF1200421FA04F411FA0CF118BFDC
:10075000012121430843A3EB0C01CB1D4FEA0061AB
:100760004FEA102042BF002010BC704700EBC3507E
:1007700010440029A4BF10BC7047401C490008BFAA
:1007800020F0010010BC704710B5141E73F1000476
:1007900008DA401C41F1000192185B411A4301D173
:1007A00020F0010010BD2DE9F04D92469B4611B19D
:1007B000B1FA81F202E0B0FA80F220329046FFF7FF
:1007C0008DFF04460F4640EA0A0041EA0B015346FA
:1007D0005A46084313D0114653EA010019D0C8F114
:1007E00040025046FFF789FF05460E4650465946DF
:1007F0004246FFF773FF084305D0012004E020467E
:100800003946BDE8F08D0020054346EAE0762C43EA
:1008100037430A986305E40AA0EB08000022FD0AAA
:1008200044EA47540A3002D500200146E9E70105B1
:1008300010196941DDE9084500196941BDE8F04D2D
:10084000A2E70000064C074D06E0E06840F0010317
:1008500094E8070098471034AC42F6D3FFF76CFCDD
:1008600068E9030888E9030870B58C1810F8015B83
:1008700015F0070301D110F8013B2A1106D110F839
:10088000012B03E010F8016B01F8016B5B1EF9D13D
:100890002B0705D40023521E0DD401F8013BFAE7C3
:1008A00010F8013BCB1A921C03E013F8015B01F82E
:1008B000015B521EF9D5A142D8D3002070BD00BF04
:1008C000FEE7000038B505460C460020009000F019
:1008D000DDFF01229102684600F01EFF9DF8000036
:1008E000A52801D0012000E00020012C01D1012128
:1008F00000E00021084308B39DF80000A52806D1B8
:10090000012C04D1C022E102104800F005FF00BF15
:10091000284601F075FE0028FAD0002001F064F8A6
:10092000A520009001229102684600F01DFFC02220
:100930004FF40061054800F017FF05E0C0224FF4B6
:100940000061024800F0E8FE38BD000028000020E9
:1009500000F0805111B10349086001E0024948608C
:1009600070470000040402400000024000F0805183
:1009700011B10349086001E0024948607047000076
:10098000040402400000024021B1026842F001026A
:10099000026004E002684FF6FE731A40026070477E
:1009A00001460020002201F0805313B1054B1A6864
:1009B00001E0054B1A6802EA01030BB1012000E0D7
:1009C0000020704700040240000002401AB1036892
:1009D0000B43036002E003688B430360704710B56C
:1009E0000022026847F6F0739A430C6A8B6823432F
:1009F0000C6923434C6923438C692343CC6923430B
:100A00004C6A23438C6A23431A430260CB684360D9
:100A10000B6883604B68C36010BD704751B18200A2
:100A2000A2F1C042126842F001038200A2F1C0426A
:100A3000136009E08200A2F1C0421268034B1A4021
:100A40008300A3F1C0431A6070470000FEFF0F004F
:100A5000D0E901121143C26811430269114342698E
:100A6000114382691143C2691143026A1143426A08
:100A70001143826A1143C26A1143026B1143026837
:100A80009200A2F1C0421160816808290BD101686F
:100A90008900A1F1C041096841F040020168890064
:100AA000A1F1C0410A60416B0968426B526841EA9A
:100AB0000211426B926841EA0221426B928941EA3B
:100AC0000241426B128A41EA0251426B127D41EAB5
:100AD0000261426B926911430268521C9200A2F1BA
:100AE000C0421160C16AB1F5804F1BD1816B0968AA
:100AF000826B526841EA0211826B926841EA0221DC
:100B0000826B128A41EA0251826B127D41EA0261D4
:100B1000826B9269114302689200A2F1C042C2F84E
:100B2000041107E06FF0704201688900A1F1C04133
:100B3000C1F8042170472DE9F04102460025002646
:100B4000002000230024002791F803C00CF00F05BB
:100B500091F803C00CF0100CBCF1000F03D091F819
:100B600002C04CEA050591F800C0BCF1000F31D07D
:100B7000146800202BE04FF0010C0CFA00F3B1F8E0
:100B800000C00CEA03069E4220D183004FF00F0CF8
:100B90000CFA03F7BC4305FA03FC4CEA040491F891
:100BA00003C0BCF1280F06D14FF0010C0CFA00FC79
:100BB000C2F814C00AE091F803C0BCF1480F05D197
:100BC0004FF0010C0CFA00FCC2F810C0401C0828C1
:100BD000D1D31460B1F800C0BCF1FF0F34DD54680C
:100BE00000202EE000F1080C4FF0010808FA0CF389
:100BF000B1F800C00CEA03069E4221D183004FF0F9
:100C00000F0C0CFA03F7BC4305FA03FC4CEA04048E
:100C100091F803C0BCF1280F05D100F1080C08FAC7
:100C20000CF8C2F8148091F803C0BCF1480F07D14A
:100C300000F1080C4FF0010808FA0CF8C2F8108017
:100C4000401C0828CED35460BDE8F0810246002045
:100C500093680B400BB1012000E000207047416118
:100C600070470161704700BFFEE7000010B5044601
:100C70002CB14FF480510548FFF7F1FF04E04FF429
:100C800080510248FFF7EDFF10BD00000014014045
:100C90002DE9F04106460F4614461D462B462246D6
:100CA0003946304600F076FA04FB05F0024909881F
:100CB00000F023F9BDE8F0812600002001B502E034
:100CC0000098401E009000980028F9D108BD00004F
:100CD0002DE9F04F804689461646A6F120001FFAFE
:100CE00080FA1E49096889881C4A1268D28801FB6B
:100CF00002F0C11700EB5171C1F3C7071748006834
:100D000000680AFB070B15480068C3881348006891
:100D100082884946404600F03DFA2C2000F0B8FB9E
:100D2000002416E0002510E01BF804008021294172
:100D3000084020B10A48008800F0AEFB03E00948F3
:100D4000008800F0A9FB681CC5B2082DECDB601C14
:100D5000C4B2BC42E6DBBDE8F08F000020000020FA
:100D6000240000202600002070B504460D46002611
:100D700024E03046134909688988084412490988E3
:100D8000884205DD00260F480068C088204484B2F0
:100D900020460C490968C98808440C4909888842DA
:100DA00001DD002600242A7821463046FFF790FF17
:100DB0006D1C044800688088304486B2287800287A
:100DC000D7D170BD20000020180000201A0000209C
:100DD00070B504460D4604F10A018AB2143988B28E
:100DE0002B46294600F00AF805F10A0083B21438B0
:100DF00081B22246204600F001F870BD2DE9FF4F78
:100E000083B081464FF0000AD3460598A0EB090550
:100E100004990698461ACDF8049004980090002D85
:100E200001DD012705E00DB9002702E04FF0FF3793
:100E30006D42002E02DD4FF0010806E016B94FF0BA
:100E4000000802E04FF0FF387642B54201DD2C4643
:100E500000E034460020029019E0DDE9001000F0C7
:100E6000FBFAAA44B344A24505DDAAEB040A0198A3
:100E7000384480B20190A34505DDABEB040B00982C
:100E8000404480B200900298401C80B20290611CE5
:100E900002988842E1DD07B0BDE8F08F00B597B059
:100EA0000121080200F092FB012001900420039030
:100EB000800607900020029004900590069008900C
:100EC000099008200A9010200B9000200C900E90A2
:100ED0000F9010904FF480501190002012901390BA
:100EE000149001A81590169008A8FFF7B1FD0121F4
:100EF0000020FFF793FD17B000BD10B502460B466A
:100F000000242C2000F0C4FA00BF03E0184600F0D3
:100F1000C3FA641C9442F9D310BD000008B5012146
:100F2000602000F073FB03208DF8020018208DF87C
:100F300003004FF48040ADF8000069465B48FFF7BE
:100F4000FAFD4FF40040ADF8000069465748FFF73E
:100F5000F2FD0120ADF8000069465448FFF7EBFDB3
:100F60000220ADF8000069465048FFF7E4FD8020FC
:100F7000ADF8000069464E48FFF7DDFD4FF4807084
:100F8000ADF8000069464A48FFF7D5FD4FF4007000
:100F9000ADF8000069464648FFF7CDFD4FF480608C
:100FA000ADF8000069464248FFF7C5FD4FF4006008
:100FB000ADF8000069463E48FFF7BDFD4FF4805094
:100FC000ADF8000069463A48FFF7B5FD4FF4005010
:100FD000ADF8000069463648FFF7ADFD4FF480409C
:100FE000ADF8000069463248FFF7A5FD4FF4004018
:100FF000ADF8000069462E48FFF79DFD4FF4807064
:10100000ADF8000069462948FFF795FD4FF40070E0
:10101000ADF8000069462548FFF78DFD4FF480606C
:10102000ADF8000069462148FFF785FD03208DF8E3
:10103000020018208DF803001020ADF8000069466A
:101040001A48FFF778FD2020ADF8000069461748E0
:10105000FFF771FD8020ADF8000069461348FFF7E7
:101060006AFD4FF40060ADF8000069460F48FFF7D5
:1010700062FD10208DF8030003208DF8020002208D
:10108000ADF8000069460A48FFF755FD10208DF8BD
:10109000030003208DF802004FF48050ADF80000EB
:1010A00069460248FFF747FD08BD000000140140F3
:1010B0000018014000B50246072A00DD00BD28489F
:1010C0000270104602EBD0714910A2EB410139B910
:1010D000F020244908804FF4A0702349088006E0DE
:1010E0004FF4A0701F490880F0201F490880362067
:1010F00000F0CEF9082141EA421000F0CDF92A2093
:1011000000F0C6F9002000F0C7F9002000F0C4F993
:1011100014490988491EC1F3072000F0BDF911499F
:101120000978491EC8B200F0B7F92B2000F0B0F9D9
:10113000002000F0B1F9002000F0AEF90A4909885A
:10114000491EC1F3072000F0A7F907490978491E95
:10115000C8B200F0A1F92C2000F09AF900BFADE769
:101160001C000020180000201A00002010B5FFF716
:10117000D5FEFFF793FE0120FFF778FD00F04EF952
:1011800000F034F802480078FFF794FF10BD00002B
:101190001C00002030B504460D462A2000F078F9E6
:1011A000201200F079F9E0B200F076F9A118491E9A
:1011B000C1F30F2000F070F9A118491EC8B200F069
:1011C0006BF92B2000F064F9281200F065F9E8B201
:1011D00000F062F9E918491EC1F30F2000F05CF934
:1011E000E918491EC8B200F057F930BD10B5CF203C
:1011F00000F04EF9002000F04FF9812000F04CF98A
:10120000302000F049F9ED2000F042F9642000F0B0
:1012100043F9032000F040F9122000F03DF981204D
:1012200000F03AF9E82000F033F9852000F034F9B5
:10123000102000F031F9782000F02EF9CB2000F0DA
:1012400027F9392000F028F92C2000F025F900209A
:1012500000F022F9342000F01FF9022000F01CF900
:10126000F72000F015F9202000F016F9EA2000F030
:101270000FF9002000F010F9002000F00DF9B12066
:1012800000F006F9002000F007F91B2000F004F937
:10129000B62000F0FDF80A2000F0FEF8A22000F0D1
:1012A000FBF8C02000F0F4F8352000F0F5F8C1207C
:1012B00000F0EEF8112000F0EFF8C52000F0E8F89B
:1012C000452000F0E9F8452000F0E6F8C72000F0DE
:1012D000DFF8A22000F0E0F8F22000F0D9F80020BA
:1012E00000F0DAF8262000F0D3F8012000F0D4F85E
:1012F000E02000F0CDF80F2000F0CEF8262000F01E
:10130000CBF8242000F0C8F80B2000F0C5F80E2020
:1013100000F0C2F8092000F0BFF8542000F0BCF83B
:10132000A82000F0B9F8462000F0B6F80C2000F034
:10133000B3F8172000F0B0F8092000F0ADF80F2046
:1013400000F0AAF8072000F0A7F8002000F0A4F8A9
:10135000E12000F09DF8002000F09EF8192000F038
:101360009BF81B2000F098F8042000F095F810205E
:1013700000F092F8072000F08FF82A2000F08CF897
:10138000472000F089F8392000F086F8032000F0AB
:1013900083F8062000F080F8062000F07DF8302069
:1013A00000F07AF8382000F077F80F2000F074F899
:1013B000362000F06DF8C82000F06EF82A2000F00A
:1013C00067F8002000F068F8002000F065F80020C1
:1013D00000F062F8EF2000F05FF82B2000F058F8E2
:1013E000002000F059F8002000F056F8012000F02D
:1013F00053F83F2000F050F83A2000F049F855200B
:1014000000F04AF8112000F043F80348FFF756FCBB
:10141000292000F03DF810BDFCBF020010B50221EC
:101420000748FFF71CFC40F6FF20FFF747FC0221AE
:101430000348FFF716FC40F6FF20FFF73FFC10BD06
:101440000018014030B504460D4601231A462946CE
:101450002046FFF79FFE30BD70B505460C46094893
:10146000008885420CDA08480088844208DA214660
:101470002846FFF7E7FF054801880120FFF73DFDFB
:1014800070BD0000180000201A0000202400002079
:101490004FF0C04108807047014908807047000044
:1014A0000000026001480068704700002000002032
:1014B000024A1080024A1180704700002400002078
:1014C000260000200149086070470000200000202D
:1014D00001490880704700002400002008B5012160
:1014E000082000F093F82020ADF8000010208DF8BF
:1014F000030003208DF8020069460F48FFF71BFB2D
:101500000120ADF8000069460B48FFF714FB0220EC
:10151000ADF8000069460848FFF70DFB202106489A
:10152000FFF79FFB01210448FFF79BFB02210248C4
:10153000FFF797FB08BD0000000C014000BFFEE76D
:101540007047000070B5002100230F22C47804B357
:10155000154C246804F4E064C4F5E064210AC1F188
:101560000403CA40447804FA03F184781440214308
:1015700009010E4C0678A155047804F01F050124DA
:10158000AC4005786D11AD0005F1E025C5F80041CE
:1015900009E0047804F01F050124AC40044D0678EE
:1015A000761145F8264070BD0CED00E000E400E047
:1015B00080E100E002490143024A116070470000E7
:1015C0000000FA050CED00E07047000029B1064A62
:1015D00052690243044B5A6104E0034A5269824350
:1015E000014B5A61704700000010024029B1064AC1
:1015F000D2690243044BDA6104E0034AD2698243B0
:10160000014BDA61704700000010024029B1064A20
:1016100092690243044B9A6104E0034A926982434F
:10162000014B9A61704700000010024030B5002164
:101630000022002400232D4D6D6805F00C0121B11E
:10164000042905D0082923D105E0294D056022E0B1
:10165000274D05601FE0254D6D6805F47012234D80
:101660006D6805F48034022505EB92421CB9214DCA
:10167000554305600BE01D4D6D6805F400351DB147
:101680001C4D5543056002E0194D5543056002E0CD
:10169000174D056000BF00BF144D6D6805F0F001E7
:1016A0000909154D6B5C0568DD4045600F4D6D689F
:1016B00005F4E061090A104D6B5C4568DD4085600A
:1016C0000A4D6D6805F46051C90A0B4D6B5C4568A5
:1016D000DD40C560054D6D6805F44041890B074D3F
:1016E0006B5CC568B5FBF3F5056130BD00100240C9
:1016F00000127A0000093D000000002010000020C8
:1017000021B1028842F04002028004E002884FF6D4
:10171000BF731A400280704770B505460C461646E6
:1017200001211048FFF79BFA032000F07FF9C4F372
:10173000074000F07BF9C4F3072000F077F9E0B22E
:1017400000F074F904E0FF2000F070F928706D1CBF
:10175000301EA6F101018EB2F5D101210148FFF73B
:1017600080FA70BD001001402DE9F05F07460E467B
:1017700014464FF00008C146C2460025AB4606F0AD
:10178000FF0ACAF10000C5B22046E11704EB11615F
:10179000C1F30728E11704EB11610912A4EB012141
:1017A00001F0FF09BAF1000F20D1B8F1000F05D107
:1017B00022463146384600F0C9F864E009E04FF4AB
:1017C00080723146384600F0C1F806F5807607F59C
:1017D0008077B8F10000A8F1010101F0FF08EED117
:1017E0004A463146384600F0B1F84CE0B8F1000FF7
:1017F00018D1A94510DDA9EB050000F0FF0B2A4622
:101800003146384600F0A2F82E442F445A4631465D
:10181000384600F09BF836E022463146384600F064
:1018200095F830E0601B84B22046E11704EB1161AB
:10183000C1F30728E11704EB11610912A4EB0121A0
:1018400001F0FF092A463146384600F07FF82E4461
:101850002F4409E04FF480723146384600F076F8A4
:1018600006F5807607F58077B8F10000A8F1010150
:1018700001F0FF08EED1B9F1000F04D04A4631461D
:10188000384600F063F8BDE8F09F000000B587B06F
:1018900001210803FFF7BAFE0121D420FFF7B6FEAD
:1018A0000120ADF8040003208DF8060010208DF80B
:1018B000070001A92248FFF73EF92020ADF80400F7
:1018C00018208DF8070001A91E48FFF734F94020C1
:1018D000ADF8040001A91B48FFF72DF98020ADF8F1
:1018E000040001A91748FFF726F901211448FFF762
:1018F000B8F90020ADF808004FF48270ADF80A0086
:101900000020ADF80C000220ADF80E000120ADF86B
:1019100010004002ADF812000820ADF814000020BD
:10192000ADF816000720ADF8180002A9064800F02F
:10193000F1F801210448FFF7E3FE07B000BD000005
:1019400000100140000801400030014070B505461C
:101950000C46164600F0C0F801211548FFF77FF944
:10196000022000F063F8C4F3074000F05FF8C4F30E
:10197000072000F05BF8E0B200F058F8B6F5807F81
:1019800004DD4FF480760BA001F0E6F803E0287840
:1019900000F04CF86D1C301EA6F101018EB2F6D19C
:1019A00001210348FFF75DF900F07CF870BD0000ED
:1019B000001001403C3C2D464C4153482D455252AD
:1019C0004F522D3E3E205350495F464C4153485F95
:1019D00050616765577269746520746F6F206C6120
:1019E000726765210A00000010B5044600F074F823
:1019F00000F058F801210C48FFF731F9202000F0E1
:101A000015F8C4F3074000F011F8C4F3072000F004
:101A10000DF8E0B200F00AF801210348FFF721F9C0
:101A200000F040F810BD00000010014010B5044661
:101A30004FF48050194908600AE018490868411EAF
:101A4000164A116020B9002000F082F8C0B210BD23
:101A50000221134800F050F80028EED0214610482B
:101A600000F056F84FF480500C4908600AE00B492A
:101A70000868411E094A116020B9012000F068F889
:101A8000C0B2E4E70121064800F036F80028EED0A5
:101A9000034800F03AF8C0B2D9E700001400002073
:101AA0000030014010B5002401210A48FFF7D7F8A3
:101AB0000520FFF7BBFF00BFFF20FFF7B7FF04467D
:101AC00004F001000028F7D101210248FFF7C9F80E
:101AD00010BD00000010014010B501210548FFF7BE
:101AE000BEF80620FFF7A2FF01210248FFF7B9F870
:101AF00010BD0000001001400246002013890B4079
:101B00000BB1012000E00020704701468889704732
:101B10008181704710B50022028802F441520B887F
:101B20004C8823438C882343CC8823430C8923434C
:101B30004C8923438C892343CC8923431A43028055
:101B4000838B4FF2FF74234083830B8A038210BD83
:101B500010B50446214602A000F0FEFF002010BD93
:101B60003C3C2D464C4153482D4552524F522D3E40
:101B70003E2053504920B5C8B4FDB3ACCAB121656D
:101B800072726F72436F6465203D2025640A000005
:101B9000704710B500F002F810BD00000CB5002031
:101BA000019000903348006840F48030314908606B
:101BB00000BF3048006800F4003000900198401CDD
:101BC0000190009818B90198B0F5A06FF1D129489B
:101BD000006800F4003010B10120009001E0002006
:101BE00000900098012843D12348006840F010007D
:101BF000214908600846006820F003000860084694
:101C0000006840F0020008601A48406819494860BE
:101C10000846406848600846406840F48060486074
:101C20000846406820F47C1048600846406840F44C
:101C3000E81048600846006840F08070086000BF07
:101C40000C48006800F000700028F9D0094840688E
:101C500020F00300074948600846406840F0020051
:101C6000486000BF0348406800F00C000828F9D124
:101C70000CBD000000100240002002407047000030
:101C800010B51348006840F001001149086008468B
:101C90004068104908400E494860084600680E49EF
:101CA00008400B4908600846006820F4802008605E
:101CB0000846406820F4FE0048604FF41F0088602A
:101CC000FFF767FF4FF000600449086010BD000097
:101CD000001002400000FFF8FFFFF6FE08ED00E0F4
:101CE0007FB505460C4601210220FFF77FFCADF8C9
:101CF0000850ADF804400020ADF80A00ADF8060029
:101D000001A9104800F05AF8012211460D4800F0D0
:101D10004BF84FF4A060FFF74DFC1D208DF800003C
:101D200000208DF8010003208DF8020001208DF8BD
:101D300003006846FFF706FC0121024800F017F88F
:101D40007FBD00000004004010B50121054800F0EF
:101D50001AF830B101202EF0CFFD0121014800F02A
:101D600003F810BD00040040CA430282704721B14D
:101D7000028842F00102028004E002884FF6FE73FE
:101D80001A400280704730B502460020002300242C
:101D9000158A05EA0103958905EA010413B10CB11E
:101DA000012000E0002030BD1AB183890B438381FC
:101DB00002E083898B438381704700000022028800
:101DC0001D4B98420ED01D4B98420BD0B0F1804F66
:101DD00008D01B4B984205D01A4B984202D01A4BA0
:101DE000984204D14FF68F731A404B881A43174B11
:101DF000984207D0164B984204D04FF6FF431A4042
:101E0000CB881A4302808B8883850B8803850A4B15
:101E100098420BD0094B984208D00E4B984205D0FF
:101E20000D4B984202D00D4B984201D10B7A03869C
:101E30000123838270470000002C014000340140E0
:101E40000004004000080040000C0040001000406A
:101E5000001400400040014000440140004801409F
:101E600021B1828942F40052828104E082894DF6D8
:101E7000FF731A408281704700B585B001210420AC
:101E8000FFF7C4FB01218803FFF7C0FB4FF400708C
:101E9000ADF8100018208DF8130003208DF8120003
:101EA00004A91348FEF747FE4FF48060ADF8100018
:101EB00004208DF8130004A90D48FEF73CFE4FF4F2
:101EC000E13000900020ADF80400ADF80600ADF858
:101ED0000800ADF80C000C20ADF80A006946054872
:101EE00000F018F801210348FFF7BAFF05B000BD64
:101EF000000801400038014002460020B1F5007F93
:101F000000D100BF13880B400BB1012000E000207E
:101F1000704700002DE9F04786B005460E460024C4
:101F2000A24600BFA1460027B08900B100BF2F46DE
:101F30002C8A4CF6FF700440F08804432C82AC8954
:101F40004EF6F3100440B088318908437189084384
:101F50000443AC81AC8A4FF6FF400440B08904438F
:101F6000AC8201A8FFF762FB1F48874202D1DDF86F
:101F700010A001E0DDF80CA0A88900F4004040B1F9
:101F80000AEBCA0000EB0A1031684900B0FBF1F817
:101F900007E00AEBCA0000EB0A1031688900B0FBC9
:101FA000F1F86420B8FBF0F004012009642101FB82
:101FB0001089A88900F4004040B1322000EBC9002C
:101FC000B0FBF1F000F00700044308E0322000EB22
:101FD00009106421B0FBF1F000F00F0004432C81E4
:101FE00006B0BDE8F087000000380140C1F30802E8
:101FF0008280704700BFFEE72DE9F04105460C46A0
:1020000016460127B4F90010B4F91020891AB4F962
:102010000A30B4F912209A1A5143B4F90820B4F9DD
:102020001030D31AB4F902C0B4F91220ACEB02029A
:1020300003FB1210FEF7CDFAB0610021B069FEF784
:102040002DFB01D10027C3E0B5F90010B5F9102030
:10205000891AB4F90A30B4F912209A1A5143B5F921
:102060000820B5F91030D31AB4F902C0B4F912201F
:10207000ACEB020203FB1210FEF7ABFA3060B4F9CE
:102080000010B4F91020891AB5F90820B5F91030FC
:10209000D21A5143B5F90020D21AB4F90830B4F974
:1020A00010C0A3EB0C0302FB1310FEF792FA706052
:1020B000B4F91010B5F908205143B4F90820B5F966
:1020C000103002FB1311B4F902205143B4F900207F
:1020D0005A43B4F91030B5F900C003FB1C23B4F91E
:1020E0000A2003FB0212B4F9081001FB0CF1B4F949
:1020F0000030B5F908C003FB1C13B4F9121003FB40
:102100000120FEF766FAB060B5F90220B5F91210A9
:10211000511AB4F90A30B4F912209A1A5143B5F998
:102120000A30B5F912209B1AB4F902C0B4F9122092
:10213000ACEB020203FB1210FEF74BFAF060B4F9AD
:102140000010B4F91020891AB5F90A30B5F9122037
:102150009A1A5143B5F90230B5F912209A1AB4F916
:102160000830B4F910C0A3EB0C0302FB1310FEF708
:1021700030FA3061B4F91010B5F90A205143B4F9BE
:102180000830B5F9122003FB1211B4F902205143B3
:10219000B4F90020B5F912305A43B4F91030B5F94A
:1021A00002C003FB1C23B4F90A2003FB0213B4F999
:1021B000081001FB0CF1B4F900C0B5F90A200CFBC2
:1021C0001212B4F9121002FB0130FEF702FA70612C
:1021D0003846BDE8F08101B5002007E00C2100BFC2
:1021E0000A1EA1F10103D9B2FAD1401C009988421C
:1021F000F4D308BD2DE9FC4705460C46684600F0BF
:10220000BFF8002867D0BDF90200FEF7E2F9824668
:102210003248007800EB400004EBC00041685046B3
:10222000FEF786F88046BDF90000FEF7D2F9824637
:102230002A48007800EB400054F830105046FEF772
:1022400077F881464146FEF71BF807462348007899
:1022500000EB400004EBC00081683846FEF710F840
:102260000646FEF7BFF900B22880BDF90200FEF76E
:10227000B0F982461948007800EB400004EBC0003A
:1022800001695046FEF754F88046BDF90000FEF79C
:10229000A0F982461148007800EB400004EBC00032
:1022A000C1685046FEF744F881464146FDF7E8FF15
:1022B00007460A48007800EB400004EBC000416983
:1022C0003846FDF7DDFF0646FEF78CF900B2688060
:1022D0000120BDE8FC870020FBE700001C00002077
:1022E00008B501216020FFF791F90120ADF8000049
:1022F0008DF8020010208DF8030069461A48FEF799
:102300001AFC0420ADF8000069461748FEF713FCDC
:102310000820ADF8000001208DF8020048208DF85B
:10232000030069461048FEF706FC4FF40050ADF874
:10233000000001208DF8020010208DF8030069468E
:102340000A48FEF7F8FB4FF400510848FEF787FCF7
:102350001020ADF8000048208DF8030069460248BF
:10236000FEF7E9FB08BD0000001801400014014021
:1023700010B50446204600F0BDFB00F0C1F810BDCA
:102380002DE9F0478CB00646002528216846FDF768
:1023900035FF00BF0AA90BA800F09EF8BDF92C007C
:1023A0002DF81500BDF9281005A820F81510681C97
:1023B000C5B210214648FEF749FC08B90A2DE9DBF1
:1023C00010214348FEF742FC10B10020414908703B
:1023D0000A2D7BD1BDF90070B846BDF91490CA46EC
:1023E00001240EE03DF91400B84202DA3DF9147000
:1023F00005E03DF91400404501DD3DF91480601C05
:10240000C4B20A2CEEDB012412E005A830F9140056
:10241000484503DA05A830F9149007E005A830F91B
:102420001400504502DD05A830F914A0601CC4B2A8
:102430000A2CEADBBDF90000BDF902100844BDF921
:1024400004100844BDF906100844BDF908100844FA
:10245000BDF90A100844BDF90C100844BDF90E106E
:102460000844BDF910100844BDF912100844C01BFF
:10247000A0EB0800C01000B23080BDF91410BDF907
:1024800016000144BDF918000144BDF91A000144C9
:10249000BDF91C000144BDF91E000144BDF9200036
:1024A0000144BDF922000144BDF924000144BDF9F5
:1024B00026000844A0EB0900A0EB0A00C01000B2FF
:1024C000708001200CB0BDE8F087FFE70020F9E73D
:1024D00000180140E80000202DE9F04104460D46B7
:1024E0009020FFF745FF06B20120FFF774FED020D1
:1024F000FFF73EFF07B226802F80BDE8F081000085
:1025000070B5002504211148FEF7A9FB01210F48F1
:10251000FEF7A7FB002414E001210C48FEF79FFB07
:1025200008210A48FEF792FB0646C4F10B0006FAA2
:1025300000F0284385B201210448FEF792FB601C9D
:10254000C4B20C2CE8DB284670BD00000018014026
:1025500010B500242748007820B1012811D00228A6
:102560003FD12FE010212448FEF770FB20B9012055
:1025700020490870002403E000201E490870002450
:1025800034E010211C48FEF761FBA0B91B4800682D
:10259000401C1A49086008460068022806D9002035
:1025A000086002201349087001240AE00120114943
:1025B0000870002405E00020104908600D490870EB
:1025C000002413E010210C48FEF740FB20B9022044
:1025D00008490870012403E000200649087000241F
:1025E00004E0002003490870002400BF00BF20461B
:1025F00010BD0000E900002000180140EC000020A0
:102600002DE9F04FB9B004464FF00009CA4600204A
:102610001E901D900026FE48FEF754FF00211F204B
:10262000FEF746FF2046FEF745FDFA480088801079
:10263000ADF85400F84800888010ADF85600BDF899
:102640005400ADF85C00F448008800EB40008010B6
:1026500001B215A84181EF48008800EB40008010CE
:1026600000B2ADF8640015A841894182BDF864004C
:10267000ADF86C00BDF8561015A84183002558E050
:10268000E5480388E348028800210846FEF700FB7E
:10269000E2A6FEF707FF8088DE49098891FBF0F883
:1026A0003046FDF7C2FDA8EB0000470820233A465C
:1026B000E0A11FA8009600F05FFAD74909884810EA
:1026C0001FA9FEF751FBFEF7EDFE8088D14909886E
:1026D00091FBF0F0471E681C009007EBD77042108A
:1026E0002023D6A11FA800F047FAFEF7DBFEC08822
:1026F000C9490988C0EB610087B21FA93846FEF7B7
:1027000033FBD048FFF767FD15AA02EBC5025288DC
:1027100091B215AA32F8352090B2FEF759FB00BFEE
:102720000DA901EBC500FFF72BFE0028F8D0681CAF
:10273000C5B2042DA4DB06AA0DA915A8FFF75CFC01
:1027400000210C98FDF7AAFF00D143E1BDF94E002E
:10275000FDF73FFF03900799FDF7EAFD8346BDF9BA
:102760004C00FDF736FF03900699FDF7E1FD594651
:102770000490FDF785FD80460899FDF781FD0590E1
:102780000C99FDF707FE0746FDF745FF1FFA80F994
:10279000BDF94E00FDF71DFF03900A99FDF7C8FD36
:1027A0000590BDF94C00FDF714FF03900999FDF762
:1027B000BFFD04900599FDF763FD83460B99FDF776
:1027C0005FFD80460C99FDF7E5FD0746FDF723FF09
:1027D0001FFA80FABDF96C00484504DABDF96C00B7
:1027E000A9EB000003E0BDF96C00A0EB090080B28A
:1027F0001E90BDF96E00504504DABDF96E00AAEBDB
:10280000000003E0BDF96E00A0EB0A0080B21D904D
:102810001E980F2802DC1D980F2800DDDAE00C98C6
:10282000FDF70DFFCDE902010698FDF708FF074609
:102830000022854BFDF7ECFDCDE90001DDE9022327
:10284000FDF758FECDE90401FDF70CFF04EB440150
:102850007E4A42F831000C98FDF7F1FECDE9020105
:102860000798FDF7ECFE07460022774BFDF7D0FDF9
:10287000CDE90001DDE90223FDF73CFECDE90401CD
:10288000FDF7F0FE04EB4401704A02EBC101486021
:102890000C98FDF7D4FECDE902010898FDF7CFFEB4
:1028A00007460022684BFDF7B3FDCDE90001DDE9E5
:1028B0000223FDF71FFECDE90401FDF7D3FE04EB73
:1028C0004401624A02EBC10188600C98FDF7B7FE33
:1028D000CDE904010998FDF7B2FE00225A4BCDE97B
:1028E0000001FDF795FDCDE90201DDE90423FDF7C7
:1028F00001FE0746FDF7B6FE04EB4401534A02EB26
:10290000C101C8600C98FDF79AFECDE904010A9850
:10291000FDF795FE00224C4BCDE90001FDF778FD57
:10292000CDE90201DDE90423FDF7E4FD0746FDF7EB
:1029300099FE04EB4401454A02EBC10108610C9881
:10294000FDF77DFECDE902010B98FDF778FE002230
:102950003D4BCDE90001FDF75BFD0746DDE90223B4
:10296000FDF7C8FDCDE90401FDF77CFE04EB440151
:10297000364A02EBC101486127480388254802888E
:1029800000210846FEF784F94FF4FC60FEF7A0FD35
:102990002FA6FEF787FD80881E49098891FBF0F875
:1029A0003046FDF742FCA8EB0000470820233A46DA
:1029B00020A11FA8009600F0DFF8174909884810E9
:1029C0001FA9FEF7D1F92748FFF705FC012039B010
:1029D000BDE8F08F104803880E48028800210846A1
:1029E000FEF756F94FF47840FEF772FD1EA6FEF78B
:1029F00059FD80880749098891FBF0F83046FDF7BA
:102A000014FCA8EB0000470820233A4609A133E054
:102A1000F8000020180000201A000020546F756391
:102A2000682043616C696272617465202E2E2E2EBF
:102A30002E2E0000252A632573000000252A632519
:102A400064000000E09304000000F03F2800002034
:102A500043616C6962726174652053756363656478
:102A60000000000040420F0043616C6962726174B3
:102A700065206661696C00001FA8009600F07CF874
:102A80001649098848101FA9FEF76EF914A6FEF72B
:102A900009FD80881549098891FBF0F83046FDF75B
:102AA000C4FBA8EB0000470820233A46AFF27C01A4
:102AB0001FA8009600F060F8FEF7F4FCC0880749F4
:102AC000098800EB610087B21FA93846FEF74CF970
:102AD0000748FFF780FB002079E700001A0000207C
:102AE00074727920616761696E000000180000202F
:102AF00040420F0070B5054604211648FEF7AFF8B6
:102B000001211448FEF7ABF800241FE0C4F10700D0
:102B100045FA00F000F0010020B104210D48FEF755
:102B2000A0F803E004210B48FEF799F80520FFF711
:102B300052FB01210748FEF794F80520FFF74BFBF5
:102B400001210448FEF78BF8601CC4B2082CDDDBC1
:102B500070BD0000001801400FB4054B10B503A96B
:102B6000044A029803F0DEFF10BC5DF814FB00007D
:102B7000E50C0108C80300200FB4084B10B504A9E8
:102B800002AA039803F0CEFF044602A9002004F035
:102B90006AF9204610BC5DF814FB0000676E00085F
:102BA00002E008C8121F08C1002AFAD17047704716
:102BB000002001E001C1121F002AFBD1704770B54F
:102BC0000446002508E02168481C20600878303859
:102BD00005EB850100EB41052168087800F004F859
:102BE0000028F0D1284670BD0146302903DB392981
:102BF00001DC012070470020FCE7000010B54421F3
:102C00000A4801F08EFE2DF067FE09490860002396
:102C100004221E2107482BF0B7FE0749086004F084
:102C20007DFC00200549087010BD0000080500204B
:102C3000940100200D7600089C01002098010020DE
:102C40002DE9F04705460F4616461C46152E30D294
:102C5000DFE806F00B3034495765839AAFCDD6F9DB
:102C6000F7F6F5F4F3F2F1F0EF00284613F04FFC1D
:102C7000814600EBD9704FEA600A384613F047FCF2
:102C8000804600EBD870AAEB600000B22080284696
:102C900013F0BCFB814600EBD9704FEA600A38465E
:102CA00013F0B4FB804600EBD870AAEB600000B2D2
:102CB00060806AE100202080608066E1284613F091
:102CC00026FC814600EBD9704FEA600A384613F0C3
:102CD0001EFC804600EBD870AAEB600000B220809A
:102CE0000020608051E1284613F011FC80463846F0
:102CF00013F00DFCA8EB000000B2208000206080E3
:102D000043E100202080284613F080FB80463846AF
:102D100013F07CFBA8EB000000B2608035E1284690
:102D200013F0F5FB814600EBD9704FEA600A384694
:102D300013F0EDFB804600EBD870AAEB600000B208
:102D40002080284613F062FB8046384613F05EFB75
:102D5000A8EB000000B2608017E1284613F0D7FB13
:102D60008046384613F0D3FBA8EB000000B2208069
:102D7000284613F04BFB8046384613F047FBA8EB80
:102D8000000000B2608000E100202080284613F09F
:102D90003DFB814600EBD9704FEA600A384613F0DC
:102DA00035FB804600EBD870AAEB600000B2608073
:102DB000EBE0284613F0ABFB8046384613F0A7FB48
:102DC000A8EB000000B22080284613F01FFB8146CC
:102DD00000EBD9704FEA600A384613F017FB8046C3
:102DE00000EBD870AAEB600000B26080CDE000205C
:102DF0002080384613F00AFB404200B26080C4E0F5
:102E0000284613F084FB814600EBD9704FEA600A34
:102E1000384613F07CFB804600EBD870AAEB6000CC
:102E200000B22080384613F0F1FA404200B26080D0
:102E3000ABE09AE082E07AE067E04DE043E032E028
:102E40001AE012E0FFE7284613F061FB804638469F
:102E500013F05DFBA8EB000000B22080384613F0B1
:102E6000D5FA404200B260808FE0002020802846E2
:102E700013F0CCFA608088E0284613F048FB8146C6
:102E800000EBD9704FEA600A384613F040FB8046E9
:102E900000EBD870AAEB600000B22080284613F047
:102EA000B5FA608071E0284613F031FB8046384661
:102EB00013F02DFBA8EB000000B22080284613F091
:102EC000A5FA608061E0384613F021FB404200B271
:102ED00020800020608058E0384613F018FB404204
:102EE00000B22080284613F091FA814600EBD97099
:102EF0004FEA600A384613F089FA804600EBD87032
:102F0000AAEB600000B260803FE0384613F0FFFAA1
:102F1000404200B22080284613F078FA80463846B6
:102F200013F074FAA8EB000000B260802DE0284690
:102F300013F0EDFA20800020608026E0284613F090
:102F4000E6FA2080284613F061FA814600EBD9703A
:102F50004FEA600A384613F059FA804600EBD87001
:102F6000AAEB600000B260800FE0284613F0CFFAB1
:102F70002080284613F04AFA8046384613F046FA75
:102F8000A8EB000000B2608000BF00BF2088298845
:102F9000084400B2208060886988084400B26080DC
:102FA000BDE8F08730B50346B1F90040B2F90050F2
:102FB000AC4202DDB1F9004001E0B2F900401C80F2
:102FC000B1F90240B2F90250AC4202DDB1F902405F
:102FD00001E0B2F902405C80B1F90440B2F904505A
:102FE000AC4202DAB1F9044001E0B2F904409C803D
:102FF000B1F90640B2F90650AC4202DAB1F9064026
:1030000001E0B2F90640DC800120B3F90040B3F9D9
:103010000450AC4205DCB3F90240B3F90650AC42AF
:1030200000DD002030BDF8B504460D4616460027E9
:10303000B4F90000B5F90010884212DBB4F90200BF
:10304000B5F9021088420CDBB4F90400B5F904109C
:10305000884206DCB4F90600B5F90610884200DCA7
:1030600001270FB90020F8BD0EB90120FBE7208829
:10307000ADF800006088ADF8020032466946284687
:1030800000F04CF808B90020EDE7A088ADF800008A
:103090006088ADF8020032466946284600F03EF8E6
:1030A00008B90020DFE72088ADF80000E088ADF81F
:1030B000020032466946284600F030F808B9002080
:1030C000D1E7A088ADF80000E088ADF802003246F4
:1030D0006946284600F022F808B90020C3E701201D
:1030E000C1E70246B2F90000B1F90430984213DC9E
:1030F000B2F90400B1F9003098420DDBB2F90200D8
:10310000B1F90630984207DCB2F90600B1F9023095
:10311000984201DB012070470020FCE72DE9FC5FAD
:1031200005460E4614464FF0000AB6F90000B5F900
:103130000010884213DBB6F90000B5F9041088428C
:103140000DDCB6F90200B5F90210884207DBB6F9CA
:103150000200B5F90610884201DC4FF0010ABAF10D
:10316000000F02D10020BDE8FC9F002C01DC0120F3
:10317000F9E7284613F0CBF9834600EBDB704710E4
:10318000284613F043F9834600EBDB704FEA6008F2
:10319000474501DA384600E0404681464C4500DDAF
:1031A0004C462888ADF800002888204400B2ADF8CD
:1031B00004006888ADF802006888204400B2ADF8C9
:1031C0000600002231466846FFF7A8FF80B1BDF82F
:1031D0000400204400B2ADF80400BDF8060020440D
:1031E00000B2ADF806003146684626F085FFBAE722
:1031F000E888001B00B2ADF80200E888ADF80600D0
:10320000002231466846FFF789FF80B1BDF804000F
:10321000204400B2ADF80400BDF80200001B00B26B
:10322000ADF802003146684626F066FF9BE7A888A5
:10323000001B00B2ADF80000A888ADF80400002221
:1032400031466846FFF76AFF80B1BDF80000001BF9
:1032500000B2ADF80000BDF80200001B00B2ADF8EE
:1032600002003146684626F047FF7CE76888ADF8E3
:1032700002006888204400B2ADF806000022314602
:103280006846FFF74BFF80B1BDF80000001B00B29D
:10329000ADF80000BDF80600204400B2ADF806000D
:1032A0003146684626F028FF5DE701205BE710B550
:1032B000B1F90030B2F90040A34202DAB1F90030AE
:1032C00001E0B2F900300380B1F90230B2F90240F6
:1032D000A34202DAB1F9023001E0B2F902304380D0
:1032E000B1F90430B2F90440A34202DDB1F904306F
:1032F00001E0B2F904308380B1F90630B2F906403A
:10330000A34202DDB1F9063001E0B2F90630C38014
:1033100010BD2DE9F04104460D461646204613F037
:10332000F6F80746204613F071F88046258066803F
:103330003946204613F037F94146204613F02DF95F
:10334000BDE8F081F0B506460D460024002E02DAF5
:10335000601CC4B276423746002D02DAA01CC4B20B
:103360006D42AC46674509D9CCEB0C1000EB400030
:10337000B0FBF7F304F11000C4B205E0C7EB07108F
:1033800000EB4000B0FBFCF30022D9B2162910DD9F
:103390002C2901DC501CC2B2292901DC501CC2B20C
:1033A000252901DC501CC2B2202912DC501CC2B2FB
:1033B0000FE0022901DB501CC2B2062901DB501CC0
:1033C000C2B20A2901DB501CC2B20F2901DB501C1A
:1033D000C2B2134404F0100008B1C3F15A0304F060
:1033E000020038B104F0010008B1B43307E0C3F1C2
:1033F000B40304E004F0010008B1C3F5B47398B25B
:10340000F0BD2DE9FF4F87B01C46DDE91478B8F117
:10341000020F02DA0BB0BDE8F08F07B9FAE702F04D
:1034200043FA0546284617F0F1FE814609F11006D9
:10343000D9F808000690686A10B12846696A88477A
:1034400004A8DDE90712FFF7ADFD8346BBF1000FCD
:1034500000D1DFE7BDF810003188401A00B2ADF8A6
:103460001000BDF812007188401A00B2ADF81200C9
:10347000BDF814003188401A00B2ADF81400BDF850
:1034800016007188401A00B2ADF81600CCB1287A47
:1034900000F00100A8B904A813F00FF803904FF052
:1034A000000A0AE014F80A00802801DDFF2000E08D
:1034B000002004F80A000AF1010A03988245F1DBB2
:1034C00000BF686948B1CDE90084029704AA30467C
:1034D000099B06990DF01FFB16E0169848B9CDE937
:1034E0000084029704AA3046099B06990DF046F91C
:1034F0000AE01698CDE90084CDE9027004AA3046AE
:10350000099B06990DF088F800BF83E72DE9FF4F6E
:1035100089B017461C46DDE91689B9F1020F02DAB7
:103520000DB0BDE8F08FB8F1000F00D1F8E707A8A3
:10353000DDE90912FFF736FD0690069800B9EFE7BE
:1035400002F0B2F90546284617F060FE82460AF1FD
:103550001006DAF808000590686A10B12846696A12
:103560008847BDF81C003188401A00B2ADF81C0035
:10357000BDF81E007188401A00B2ADF81E00BDF8FB
:1035800020003188401A00B2ADF82000BDF82200BA
:103590007188401A00B2ADF82200CCB1287A00F050
:1035A0000100A8B907A812F088FF04904FF0000BA3
:1035B0000AE014F80B00802801DDFF2000E0002065
:1035C00004F80B000BF1010B04988345F1DB00BFFD
:1035D000686950B1CDE90079CDE9024807AA3046C3
:1035E0000A9B05992DF0E2FE18E0189850B9CDE934
:1035F0000079CDE9024807AA30460A9B05992DF0CB
:1036000001FD0BE01898CDE90079CDE9024804905E
:1036100007AA30460A9B05992DF038FC00BF7FE7CA
:10362000D0F87821C2F309428A4207DA0023D0F8A1
:10363000782163F31942C0F8782107E0D0F87821A7
:10364000C1EB124363F31942C0F8782170470000C0
:103650002DE9FF5F81462DF03FF903904FF0000AFE
:10366000DB49D9F80C00086008460068C06B60B9F7
:103670000021D7480068D0F8780161F31940D44997
:103680000968C1F87801BDE8FF9F26F0D7FF26F052
:1036900019FFCF480068D0F87801C0F3094000282E
:1036A00075D0CB48006817F060FE002870D0C8487D
:1036B0000068406900287DD1C548006817F0A6FD64
:1036C000054627F0E9F800BFA8690028FCD10027CB
:1036D000BF490968B1F90010480001F069FA0746CE
:1036E000D5F808B02968A868884201D1686800E068
:1036F00028680290B648006817F09FFD064600242F
:103700004BE0B348006800F5AD70005DF0BBB04819
:1037100000685A3030F93410AD4800685A3000EB78
:10372000C400B0F9020006FB00104FEA4008A849A7
:1037300009685A3101EBC40012F0B8FE4000009055
:10374000A34800685A3000EBC400B0F902000190B1
:1037500012E0029800EB08013846009A01F026FBBF
:103760000BEB08003946009A01F020FB08EB4608F5
:103770000198401C00B20190954800685A3000EB57
:10378000C400B0F906100198814202E003E03BE07A
:1037900010E0DEDA00BF601C84B28D480068D0F80B
:1037A0007801C0F30940A042ABDC17B1384601F004
:1037B000AFFA00BF4FF48071854800685A3001F0BD
:1037C000BFFC20218248006800F5AD7001F0B8FC14
:1037D00000217F480068D0F8780161F319407C49E6
:1037E0000968C1F8780103982DF068F88246784896
:1037F0000068806940B17648006883697548514621
:10380000026873480068984701F0A6F900F0FCF8D8
:103810007148006800287AD100BF17F0FBFC05460C
:1038200017F025FD044600211EF094FA6A4908604D
:103830000221694800681FF091FB674800252E4669
:10384000FF2704682C2040EA06223B4629462046F2
:1038500001F0EDFF00BF002002905F48046802986D
:103860000090292040EA062229462046009B01F0CC
:10387000A3FF00BF594800680190574804680198A9
:10388000009048F2890040EA062229462046009B23
:1038900001F092FF00BF504803270468102040EA5F
:1038A00006223B462946204601F0A3FF00BF4A48B6
:1038B0000468112040EA06223B462946204601F0D2
:1038C00098FF00BF44480468122040EA06223B46A5
:1038D0002946204601F08DFF00BF3F4804681320B1
:1038E00040EA06223B462946204601F082FF00BFFF
:1038F0003BA1394800681FF02BFC0020034606223C
:10390000014600903448006821F024FE00BF35488D
:1039100000682CF0D3FFB0F5967F10D22D480068D8
:1039200041F28831884251D92F48006850442E49CD
:1039300008602E480068401C2C49086046E02CF0C6
:10394000CBFF2849086022480068C06A00684FF42D
:103950007A71B1FBF0F52448006810B901202249C2
:1039600008602248006808B92C4608E01F48006833
:103970004FF47A7148431C490968B0FBF1F4002008
:103980001949086019490860AC4200D92C4618480A
:10399000006820441649086016480068401C154914
:1039A00008602BF0B1F8C0F164063346224612A13C
:1039B000094800681FF058FC002003460622014613
:1039C00000900548006821F0C5FD00BF00BF5AE621
:1039D0002C0100202801002038010020CCAA030877
:1039E0003F0000003C010020400100204401002075
:1039F00034010020300100202564204650530A2560
:103A0000642525204350550010B50548006830B1A5
:103A10000348006821F004F900200149086010BD46
:103A2000B801002010B51821014800F07AFF10BD40
:103A3000140500202DE9FF4F8BB004469A46199DCE
:103A4000BAF1000F11D11898B0F5807F0DD1002088
:103A5000208060800C98401E00B2A0800D98401E0F
:103A600000B2E0800FB0BDE8F08FB5F90000404231
:103A7000189948430121C1EB202000B22080B5F9FC
:103A800002004042189948430121C1EB202000B2B6
:103A90006080B5F900100C98401A1899484302212B
:103AA00001EB202000B2A080B5F902100D98401A59
:103AB00018994843022101EB202000B2E080BAF1BE
:103AC000000F14D120882988084400B22080608823
:103AD0006988084400B26080A0882988084400B240
:103AE000A080E0886988084400B2E080BAE70A2034
:103AF0009AFBF0F00A900A98401C09900A9800EB93
:103B00008000AAEB400B0A9800B202F029FC089052
:103B1000099800B202F024FC07900A985A3000B2CB
:103B200002F01EFC069009985A3000B202F018FC10
:103B30000590CBF10A0108984143079800FB0B1050
:103B40000A2190FBF1F6CBF10A0106984143059852
:103B500000FB0B100A2190FBF1F776117F11B4F9ED
:103B60000080B4F9029007FB08F006FB19002988D1
:103B700001EBA02000B2ADF8100006FB08F007FB37
:103B80000900698801EBA02000B2ADF81200B4F979
:103B90000480B4F9029007FB08F006FB190029889D
:103BA00001EBA02000B2ADF80C0006FB08F007FB0B
:103BB0000900698801EBA02000B2ADF80E00B4F94D
:103BC0000080B4F9069007FB08F006FB190029886D
:103BD00001EBA02000B2ADF8080006FB08F007FBDF
:103BE0000900698801EBA02000B2ADF80A00B4F921
:103BF0000480B4F9069007FB08F006FB1900298839
:103C000001EBA02000B2ADF8040006FB08F007FBB2
:103C10000900698801EBA02000B2ADF80600BDF9EB
:103C20000800BDF91010884202DABDF9080001E071
:103C3000BDF91000BDF90410BDF90C20914202DA63
:103C4000BDF9041001E0BDF90C1088420BDABDF992
:103C50000800BDF91010884202DABDF908000DE035
:103C6000BDF910000AE0BDF90400BDF90C1088424E
:103C700002DABDF9040001E0BDF90C002080BDF9B5
:103C80000800BDF91010884202DDBDF9080001E00E
:103C9000BDF91000BDF90410BDF90C20914202DD00
:103CA000BDF9041001E0BDF90C1088420BDDBDF92F
:103CB0000800BDF91010884202DDBDF908000DE0D2
:103CC000BDF910000AE0BDF90400BDF90C108842EE
:103CD00002DDBDF9040001E0BDF90C00A080BDF9D2
:103CE0000A00BDF91210884202DABDF90A0001E0AB
:103CF000BDF91200BDF90610BDF90E20914202DA9D
:103D0000BDF9061001E0BDF90E1088420BDABDF9CD
:103D10000A00BDF91210884202DABDF90A000DE06E
:103D2000BDF912000AE0BDF90600BDF90E10884287
:103D300002DABDF9060001E0BDF90E006080BDF9B0
:103D40000A00BDF91210884202DDBDF90A0001E047
:103D5000BDF91200BDF90610BDF90E20914202DD39
:103D6000BDF9061001E0BDF90E1088420BDDBDF96A
:103D70000A00BDF91210884202DDBDF90A000DE00B
:103D8000BDF912000AE0BDF90600BDF90E10884227
:103D900002DDBDF9060001E0BDF90E00E08000BFC4
:103DA00060E600002DE9F74F86B0044620680590D4
:103DB000B4F908100798A0EB0108B4F90A100898A4
:103DC000A0EB0109E089B0F5807F13D1206B00FBE7
:103DD00008F0E16A01FB1901606A00EBA10BE06ADF
:103DE00000FB08F0216B01FB0901A06A00EBA100B8
:103DF00004902FE0A08980B9A06B00FB08F04FEA87
:103E00006018A06B00FB09F04FEA6019606A00EBD4
:103E1000080BA06A484404901CE0A06B00FB08F06B
:103E20004FEA6018A06B00FB09F04FEA6019206BA5
:103E300000FB08F0E16A01FB1901606A00EBA12BAD
:103E4000E06A00FB08F0216B01FB0901A06A00EBAE
:103E5000A12004904FEA2B2604980712B4F904001D
:103E6000B04203DC002009B0BDE8F08F002E01DA7B
:103E70000020F8E7B4F90600B84201DC0020F2E7C0
:103E8000002F01DA0020EEE73420005DC0F380004F
:103E900050B33420005DC0F3400078B90225B4F976
:103EA00004007843684306FB050A059800EB0A0105
:103EB0002A4604F1140001F0CDF82CE00325B4F9F2
:103EC00004007843684306FB050A6A1E059800EB68
:103ED0000A0104F1140001F0BDF80AEB0500401ED0
:103EE0000599095CA17516E04FF0000A0025208AAB
:103EF00003463AB231B2019004F118001BF05EFDA6
:103F00000290BDF80800A0823AB231B204F1180064
:103F10001BF0B4FCA0753420005D00F0010060B11E
:103F200013480068029002980190A08ABDF804101E
:103F3000884201D1002096E700BFE07C08B901204B
:103F400091E70FFA8BF1A187049801B2E18731B2B2
:103F50004020015339B242200153C4F844A084F8F0
:103F60004850204600F006F8039003987BE70000D5
:103F7000D0AA03082DE9F04F8DB00446D4F8009084
:103F800094F83C000C9094F83E000B900C9870282C
:103F90000BDA4FF0FF35B4F940002844002800DA6E
:103FA00000250C988030C7B213E00C9890280EDDE5
:103FB0000125B4F940002844B4F90410884200DB1C
:103FC00000250C98C0F1FF008030C7B201E0002549
:103FD000FF270B9870280CDA4FF0FF36B4F9420037
:103FE0003044002800DA00260B98803000F0FF08EB
:103FF00015E00B9890280FDD0126B4F942003044FB
:10400000B4F90610884200DB00260B98C0F1FF00CF
:10401000803000F0FF0802E000264FF0FF08A08A81
:104020000A90A07D06900020059004900390342013
:10403000005DC0F3800000285BD094F84800626CFB
:1040400000FB052000EB0901022209A801F00EF88F
:10405000B4F9040094F848205043626C00FB062039
:1040600000EB0901022208A801F000F8B4F90400ED
:1040700094F848205043626C00FB062294F84800F4
:1040800000FB052000EB0901022207A800F0EEFF6B
:104090003420005DC0F3400000287ED094F8480032
:1040A000616C00FB05110844401E19F800000590E2
:1040B000B4F9040094F848104843616C00FB061101
:1040C00094F848000844401E19F800000490B4F920
:1040D000040094F848104843616C00FB061194F802
:1040E000480000FB05110844401E19F80000039029
:1040F00053E0208A0090B4F942204020005B28441D
:1041000001B204F11800009B1BF058FC0990208AB2
:1041100000904220005B304402B2B4F9401004F138
:104120001800009B1BF04AFC0890208A0090422057
:10413000005B304402B24020005B284401B204F12D
:104140001800009B1BF03AFC07903420005DC0F380
:10415000400010B3B4F942204020005B284401B273
:1041600004F118001BF08AFB05904220005B3044EC
:1041700002B2B4F9401004F118001BF07FFB049068
:104180004220005B304402B24020005B284401B270
:1041900004F118001BF072FB0390BA46BB463420B2
:1041A000005DC0F34000E0B306987843C7F1FF0C10
:1041B000059B03FB0C00C0F3072104987843C7F16B
:1041C000FF0C039B03FB0C00C0F3072201FB08F06C
:1041D000C8F1FF0302FB0300030AA375022905DCF3
:1041E000022A03DC00200DB0BDE8F08F022901DCBB
:1041F0004FF00008022A01DC4FF0FF080698022861
:1042000001DC4FF0000A0598022801DC4FF0FF0A9C
:104210000498022801DC4FF0000B0398022803DC0D
:1042200000E002E04FF0FF0B03E0BA46BB46FF217F
:10423000A175BAF1000F02D1099802900BE0BAF112
:10424000FF0F02D10A98029005E05246DDE90910FD
:1042500015F0B3FB0290BBF1000F02D1079801905B
:104260000BE0BBF1FF0F02D10898019005E05A4620
:10427000DDE9071015F0A1FB0190B8F1000F03D1A3
:10428000BDF80400A0820FE0B8F1FF0F03D1BDF824
:104290000800A08208E04246DDE9011015F08DFB20
:1042A0000090BDF80000A08201209CE72DE9F05F9E
:1042B0000446B4F9080001026162B4F90A0001027F
:1042C000A162B4F90C000A2190FBF1F56F1CB4F95E
:1042D0000C0005EB8501A0EB4106684200B202F03C
:1042E0003FF88046784200B202F03AF88146C5F1C4
:1042F0005A0000B202F034F88246C7F15A0000B208
:1043000002F02EF88346C6F10A0000FB08F009FB14
:1043100006000A2190FBF1F1E162C6F10A0000FB00
:104320000AF00BFB06000A2190FBF1F12163E06A21
:104330004111E162206B41112163A07C1BF0B9FCAB
:104340003421095D60F3000134200155A07C1BF08D
:1043500093FC3421095D60F3410134200155A07CB8
:10436000042805D0A07C052802D0A07C062807D10F
:104370003420005D20F00400001D3421085505E0C4
:104380003420005D20F004013420015521682162B1
:10439000A06920F0E000A061A17CA06961F30400A5
:1043A000A061A188A06961F39420A061E188A0695F
:1043B00061F35F50A061E08900EBD071491001F515
:1043C000001191FBF0F2A263FF21A175208AA08267
:1043D000BDE8F09F2DE9F35F074600255A480088A5
:1043E00010B90020BDE8FC9F58480668002414E07E
:1043F00004EBC40006EB8000006A554988420ADDE0
:1044000004EBC40006EB8000006A401E04EBC4010C
:1044100006EB81010862601C84B24B48008884422C
:10442000E6DB002442E04FF0000A04EBC40106EB97
:10443000810148681DF010F88146B9F1000F12D1D2
:1044400004EBC40006EB80004068B84219D104EBCD
:10445000C40006EB80000089BDF80410884210D12A
:104460004FF0010A0DE0B9F1010F0AD104EBC401CC
:1044700006EB810148683946FBF7DEFE08B94FF0CC
:10448000010ABAF1000F0FD004EBC40006EB80055F
:10449000296A686908442862286AB0F57A7F02DDD3
:1044A0004FF47A70286205E0601C84B226480088C8
:1044B0008442B8DB00BF0DB1284693E7354601249E
:1044C0000DE004EBC40006EB8000006A296A884214
:1044D00003DA04EBC40006EB8005601C84B21A48C2
:1044E00000888442EDDB686810B128461BF0ECFFC1
:1044F0002CF0F2F983460020686139462846019A7B
:104500001CF050F88046B8F1000F0FD128461BF080
:10451000DBFF2021284600F013FE2421284600F06E
:104520000FFE4FF00040286200205BE70020286269
:10453000686918B958462CF0C1F96861686908B90A
:104540000120686128464DE750010020A0010020AD
:104550000100008010B51021134800F0E2F91BF0B3
:10456000C7FF04466CB900BF204616F00BFC30B9FB
:10457000224600230DA016F00BFC00BFFEE700BF93
:1045800010BD0E4920461CF077F80D4920461CF05E
:1045900075F80C4920461CF073F80B4920461CF0B6
:1045A00069F800BFECE70000200500204F7574207B
:1045B0006F66206D656D6F727900000077FE0108EF
:1045C00039020208010402084DFE010810B500215D
:1045D00008461DF047F810BD70B504460D4600268C
:1045E0001021284600F0ACFD2078012804D1208C51
:1045F0002880608C68800CE02078022802D1606AF4
:10460000686006E02078042803D10A206860002052
:10461000A881606820B12946204662689047064616
:10462000304670BD7FB504463D49E06808600846E5
:104630000068C06800B97FBD394800680FF06EF8A7
:104640003748006890F85000C0F3800000B1F2E7EE
:1046500000BF694632480068FFF7BEFF0546304894
:1046600000680FF05BF800202E4908609DF80E00EE
:104670002B49096808772A480068007F012807D17C
:104680002CF02AF926490968C968C1F87C010EE0B6
:10469000234800680078042809D1BDF80C0030B127
:1046A0002CF01AF91E490968C968C1F87C011C4838
:1046B00000680078012805D16946194800680EF0A5
:1046C0003DFD1FE0164800680078022805D16946C4
:1046D000134800680EF096FB14E01148006800785B
:1046E000042805D169460E4800680EF095F809E0E7
:1046F0000B4800680078032804D169460848006820
:104700000DF00AFD064800680FF008F8002DA0D152
:104710000020034908600349086000BF8BE70000E0
:1047200014010020180100202DE9FF4104460F4626
:1047300014B916F06FFD04460CB9BDE8FF813FB90E
:104740000021D4F8780161F31940C4F87801F4E746
:104750000020ADF80800ADF80A00204616F06DFD07
:10476000401E00B2ADF80C00204616F0E0FD401EE1
:1047700000B2ADF80E0002AA39466846FEF712FCF8
:104780000646002E4CD0206918B1694620462269A1
:10479000904700250BE004F15A0000EBC501002210
:1047A0006846FEF740FC00B1C7E7681C85B2D4F844
:1047B0007801C0F30940A842EDDCD4F87801C0F3D9
:1047C000094020280BDAD4F87811C1F3094204F12A
:1047D0005A0101EBC200694611F029FD11E00021E8
:1047E000D4F8780161F31940C4F87801D4F878114D
:1047F000C1F3094204F15A0101EBC20002A911F010
:1048000016FDD4F87801000C401CD4F8781160F340
:104810001941C4F878110321E06A2AF06FFA00BF49
:1048200000BF8AE72DE9F04107460C4615461E46B3
:104830002946384600F038F9AEB100222946204614
:104840002CF01EFF2946204662682CF00BFF6068A2
:1048500020B12A46204661682CF012FF6560A068EE
:10486000B0B9A56014E029462046A2682CF008FFE4
:104870000022294620462CF0F5FEA06820B12A46E9
:104880002046A1682CF0EEFEA560606800B9656066
:10489000BDE8F08170B50546284600F013F80446DF
:1048A00000260CE02146284600F023F80646214663
:1048B000284600F0F9F8204620F0B2F93446002CE2
:1048C000F0D170BD0146002001B14868704770B555
:1048D000064600243046FFF7F5FF054605E0641C58
:1048E0002946304600F005F80546002DF7D1204650
:1048F00070BD02460AB9002070470B461068001DC3
:1049000003441868F8E702460AB9002070470B46CE
:10491000106803441868F9E70146002001B188686F
:104920007047002242608260CA1C22F003010160CD
:10493000704770B50446216801F1080020F004F9C1
:104940000546A5B10022294620462CF099FE2946AD
:10495000204662682CF086FE606820B12A46204618
:1049600061682CF08DFE6560A06800B9A5602846DE
:1049700070BD2DE9F04106460D4606B115B900207F
:10498000BDE8F0813046FFF79DFFA84206D13046D2
:10499000FFF7CFFF044624BB0020F1E7316801F1A7
:1049A000080020F0D1F804460CB90020E8E72946B9
:1049B0003046FFF7A8FF07462246394630462CF01E
:1049C00051FE3A46214630462CF05AFE22462946F0
:1049D00030462CF055FE2A46214630462CF042FE49
:1049E00000BF2046CCE770B50446216801F10800FD
:1049F00020F0AAF80546A5B10022294620462CF051
:104A000031FE29462046A2682CF03AFEA06820B16B
:104A10002A462046A1682CF025FEA560606800B9F2
:104A20006560284670BD014609B901207047486895
:104A300018B9886808B90120F8E70020F6E72DE9E1
:104A4000F04107460D461646B54201D1BDE8F0815A
:104A50002EB131463846FFF756FF044603E038468C
:104A6000FFF75AFF0446A54200D1EFE72946384632
:104A700000F01AF82A46214638462CF0F3FD22466B
:104A8000294638462CF0FCFD2A46314638462CF0A3
:104A9000F7FD3246294638462CF0E4FD06B9BD60E4
:104AA00004B97D6000BFD1E72DE9F04104460D4611
:104AB0002046FFF707FFA8420FD129462046FFF7FF
:104AC00018FF6060606810B90020A0602FE000222D
:104AD000204661682CF0D4FD29E02046FFF71CFF3A
:104AE000A8420FD129462046FFF70DFFA060A0681D
:104AF00010B9002060601AE000222046A1682CF066
:104B0000B1FD14E029462046FFF7FDFE0646294682
:104B10002046FFF7EEFE07463A46314620462CF087
:104B2000A1FD3246394620462CF0AAFD00BFBDE863
:104B3000F081F0B50446059D8C4201DC1846F0BDBD
:104B4000944201DB2846FAE7571AEE1A601A7043BE
:104B500090FBF7F01844F2E710B5002406E00020BF
:104B6000114901EBC4018871601CC4B2022CF6D358
:104B7000002415E00D4850F8340078B10B4951F885
:104B8000340020F04DF80020084941F8340001EBD2
:104B9000C4018871054901EBC4018880601CC4B25E
:104BA000102CE7DB10BD0000C801002038050020F4
:104BB0002DE9F041054615B90020BDE8F081102D22
:104BC00015D8002411E0434800EBC400807900F0C0
:104BD000010040B901203F4901EBC40188713D4803
:104BE00050F83400E9E7601CC4B2022CEBD34FF05C
:104BF000FF3600242CE0384800EBC400807900F038
:104C0000010018BB344800EBC4008088A8421DD3C3
:104C1000314800EBC4008088A84208D101202E4909
:104C200001EBC40188712C4850F83400C5E7002E10
:104C300001DA66B20AE0284800EBC4008088264901
:104C400001EBC6018988884200DA66B2601CC4B2F2
:104C5000102CD0DB002E08DB01201F4901EBC60120
:104C600088711D4850F83600A7E7002427E01A484D
:104C700000EBC400807900F00100F0B9164951F84A
:104C80003400294620F00CF807463FB900BF002247
:104C90001346124816F07CF800BFFEE701200E49CB
:104CA00001EBC40188710C4901EBC4018D800A48F5
:104CB00040F8347050F834007FE7601CC4B2102C08
:104CC000D5DB00BF0022134605A016F061F800BF37
:104CD000FEE70000C80100203805002080E5030839
:104CE0004E6F2066726565206275666665722E205D
:104CF000496E637265617365204C565F4D454D5F2B
:104D00004255465F4D41585F4E554D2E0000000004
:104D1000014600200CE0114A52F830208A4205D1A9
:104D200000220E4B03EBC0039A717047421CD0B2B5
:104D30000228F0D300200CE0094A52F830208A42C1
:104D400005D10022064B03EBC0039A71EDE7421C2C
:104D5000D0B21028F0DB00BFE7E70000C801002058
:104D600038050020014609B90020704704488142F7
:104D700001D10020F9E70A1F10684008F5E700009C
:104D8000C00100200749084A1160114608680168FF
:104D900021F00101016047F6FC72016862F35F01D6
:104DA0000160704758060020BC0100202DE9F04149
:104DB0000F46154601463A4601F0030602F0030C81
:104DC000B4457DD0C2E092F8008081F80080491C93
:104DD000521C92F8008081F80080491C521C92F805
:104DE000008081F80080491C521C92F8008081F8F4
:104DF0000080491C521C92F8008081F80080491CF8
:104E0000521C92F8008081F80080491C521C92F8D4
:104E1000008081F80080491C521C92F8008081F8C3
:104E20000080491C521C92F8008081F80080491CC7
:104E3000521C92F8008081F80080491C521C92F8A4
:104E4000008081F80080491C521C92F8008081F893
:104E50000080491C521C92F8008081F80080491C97
:104E6000521C92F8008081F80080491C521C92F874
:104E7000008081F80080491C521C92F8008081F863
:104E80000080491C521C92F8008081F80080491C67
:104E9000521C92F8008081F80080491C521C92F844
:104EA000008081F80080491C521C92F8008081F833
:104EB0000080491C521C92F8008081F8008000E0BC
:104EC00053E0491C521C92F8008081F80080491C74
:104ED000521C92F8008081F80080491C521C92F804
:104EE000008081F80080491C521C92F8008081F8F3
:104EF0000080491C521C92F8008081F80080491CF7
:104F0000521C92F8008081F80080491C521C92F8D3
:104F1000008081F80080491C521C92F8008081F8C2
:104F20000080491C521C92F8008081F80080491CC6
:104F3000521C92F8008081F80080491C521C92F8A3
:104F4000008081F80080491C521C203D202D3FF636
:104F50003AAF06E092F8008081F80080491C521CAC
:104F60006D1E002DF6D1BDE8F0816EB1C6F10406CC
:104F700007E092F8008081F80080491C521C761EE0
:104F80006D1E0EB1002DF4D10B46144630E0D4F85E
:104F90000080C3F800801B1D241DD4F80080C3F8D6
:104FA00000801B1D241DD4F80080C3F800801B1D49
:104FB000241DD4F80080C3F800801B1D241DD4F8E4
:104FC0000080C3F800801B1D241DD4F80080C3F8A6
:104FD00000801B1D241DD4F80080C3F800801B1D19
:104FE000241DD4F80080C3F800801B1D241D203D23
:104FF000202DCCD806E0D4F80080C3F800801B1D1B
:10500000241D2D1F042DF6D81946224606E092F8DD
:10501000008081F80080491C521C6D1E002DF6D1C5
:1050200000BFA0E730B504460B4604E01D782570AC
:10503000641C5B1C521E002AF8D130BD30B50446FA
:105040000B4604E01D782570641C5B1C521E002A70
:10505000F8D130BD30B504460B4604E01D7825700C
:10506000641C5B1C521E002AF8D130BD30B50446CA
:105070000B4604E01D782570641C5B1C521E002A40
:10508000F8D130BD30B504460B4604E01D782570DC
:10509000641C5B1C521E002AF8D130BD30B504469A
:1050A0000B4604E01D782570641C5B1C521E002A10
:1050B000F8D130BD30B504460B4604E01D782570AC
:1050C000641C5B1C521E002AF8D130BDF0B50646A8
:1050D0000B46344604F003054DB1C5F1040503E069
:1050E0002370641C521E6D1E0DB1002AF8D103EB13
:1050F000032707EB034707EB0361204610E001603D
:10510000001D0160001D0160001D0160001D0160A7
:10511000001D0160001D0160001D0160001D203A9E
:10512000202AECD802E00160001D121F042AFAD8E0
:10513000044602E02370641C521E002AFAD1F0BD1E
:1051400030B50446224602F0030353B1C3F1040311
:1051500004E000251570521C491E5B1E0BB100298E
:10516000F7D1104611E000250560001D0560001D07
:105170000560001D0560001D0560001D0560001D27
:105180000560001D0560001D20392029EBD803E0D3
:1051900000250560001D091F0429F9D8024603E017
:1051A00000251570521C491E0029F9D130BD30B5BB
:1051B0000446224602F0030353B1C3F1040304E0A2
:1051C000FF251570521C491E5B1E0BB10029F7D13B
:1051D000104612E04FF0FF350560001D0560001D10
:1051E0000560001D0560001D0560001D0560001DB7
:1051F0000560001D0560001D20392029EAD804E063
:105200004FF0FF350560001D091F0429F8D802463C
:1052100003E0FF251570521C491E0029F9D130BD4D
:105220002DE9F04107460D4600240CE021463846A2
:1052300021F05EFB064606B907E0706865F3CB20F7
:105240007060601CC4B2402CF0DB00BF40240CE056
:105250002146384621F04CFB064606B907E0706847
:1052600065F3CB207060601CC4B2FF2CF0DB00BF84
:10527000BDE8F0812DE9FE4F05460E46144627464F
:105280004FEA27294FF0000AA84626E0314640465B
:1052900021F02EFB00903146404621F05DFA834616
:1052A00007EB0B2084B201AA2146009800F07EFC97
:1052B0008246BAF1010F04D1BDF804100846BDE8DA
:1052C000FE8F09F0800000B90AE00EB1002604E06C
:1052D000404621F0EBF9804600BFB8F1000FD5D170
:1052E00000BF24F4FE44292C02D02A2C08D100E06F
:1052F00000BF064800680090BDF800100846DEE7D1
:1053000000200290BDF808100846D8E7C8AA030894
:105310002DE9FE4F06460F461546A8464FEA2820BF
:10532000029000200090B14613E13946484621F032
:10533000DFFA0446A088C0F3C020002874D1207989
:1053400000F03F0000286FDDA088C0F3802028B95E
:1053500025F4FE423946484630F0B0FF4FF0000BCE
:1053600025F4FE4030286AD024DC112875D010DCEA
:1053700005285CD006DC012870D0022845D004281E
:1053800049D153E0062850D0072851D01028F7D132
:1053900089E0162871D006DC12286FD013286ED051
:1053A0001528EDD189E017286AD0182869D020285F
:1053B000E6D190E0602873D010DC402856D006DC9F
:1053C000312843D032286CD03328D9D147E0422845
:1053D00068D050285DD05428D2D182E048F28102B2
:1053E000811A904219D009DC72287CD0912875D09E
:1053F000A0F5004080380028C2D10DE0012979D005
:1054000002296FD01F297CD167E0A088C0F38030CB
:1054100008B14FF0010B74E000BF6068C0F340704A
:1054200008B14FF0010B6CE071E000BF00BF00BF9E
:10543000A088C0F3C03008B14FF0010B61E0606894
:10544000C0F3405008B14FF0010B5AE06068C0F360
:10545000805008B14FF0010B53E025E012E0606886
:10546000C0F3C05008B14FF0010B4AE06068C0F3D0
:10547000006008B14FF0010B43E01FE015E015E0BC
:105480001DE01DE0A088C0F3003008B14FF0010B13
:1054900037E06068C0F3806008B14FF0010B30E086
:1054A0001EE019E01BE000BF00BF00BF6068C0F352
:1054B000004008B14FF0010B23E000BF00BF00BF68
:1054C0006068C0F3404008B14FF0010B19E00AE0FA
:1054D00004E00FE006E000BF00BF00BF00BF00BF58
:1054E00000BF00BF00BF6068C0F3804008B14FF04C
:1054F000010B06E06068C0F3807008B14FF0010B4B
:1055000000BF00BFBBF1000F00D026E000BF39464E
:10551000484621F021F9824608EB0A2085B201AA0B
:105520002946204600F08EFB00900098012803D108
:10553000BDF90400BDE8FE8F029800F0800000B9BC
:105540000BE00FB1002704E0484621F0AFF8814698
:1055500000BFB9F1000F7FF4E8AE00BF25F4FE45AF
:10556000222D10D004DC032D09D0072D10D10CE022
:10557000312D02D0C02D0BD103E00F20DAE7062039
:10558000D8E71020D6E7FF20D4E74FF48070D1E7AA
:105590000020CFE72DE9FE4F06460F461446A046F1
:1055A0004FEA2820029000200090B14668E039467A
:1055B000484621F09DF90546A888C0F3C020002880
:1055C0003DD1287900F03F00002838DDA888C0F3DD
:1055D000802028B924F4FE423946484630F06EFE59
:1055E0004FF0000B24F4FE402C280DD0A0F5004015
:1055F0000C3810B1A1281CD114E0A888C0F34030A9
:1056000008B14FF0010B14E06868C0F3005010B10E
:10561000FF20BDE8FE8F6868C0F3C04008B14FF0BE
:10562000010B06E06868C0F3007008B14FF0010B91
:1056300000BF00BFBBF1000F00D024E000BF39461F
:10564000484621F089F8824608EB0A2084B201AA74
:105650002146284600F042FB00900098012802D124
:105660009DF80400D5E7029800F0800000B90AE038
:105670000FB1002704E0484621F018F8814600BF2A
:10568000B9F1000F93D100BF24F4FE442C2C06D0B6
:105690006D2C06D0A4F50040AD3820B900E000BF65
:1056A00000BF0020B5E7FF20B3E700002DE9FE4F63
:1056B00006460F461446A0464FEA282002900020D6
:1056C0000090B14660E03946484621F011F90546A0
:1056D000A888C0F3C020A0BB287900F03F000028B4
:1056E00031DDA888C0F3802028B924F4FE42394671
:1056F000484630F0E3FD4FF0000B24F4FE406E28E6
:105700000DD07F2804D0A0F500408E38A0B90DE060
:105710006868C0F3C06008B14FF0010B0CE0686826
:10572000C0F3406008B14FF0010B05E06868C00F9E
:1057300008B14FF0010B00BF00BFBBF1000F01D05B
:1057400025E000E000BF3946484621F005F88246D2
:1057500008EB0A2084B201AA2146284600F00AFB81
:1057600000900098012802D10198BDE8FE8F0298B0
:1057700000F0800000B90AE00FB1002704E04846BD
:1057800020F094FF814600BFB9F1000F9BD100BF0C
:1057900024F4FE447E2C06D0BE2C07D0A4F5004095
:1057A0008E3828B900BF2AF0F1FFDEE70148DCE7B8
:1057B0000020DAE72CE003082DE9FF4105460E46FC
:1057C00014463146284621F093F8074621463846CC
:1057D000039A00F0DBFB002322463146284630F0D6
:1057E000BDFC24F4FE423146284622F0D1FABDE841
:1057F000FF812DE9F04106460F4614461D46394605
:10580000304621F075F880462A462146404600F091
:10581000CAFB002322463946304630F09FFC24F470
:10582000FE423946304622F0B3FABDE8F0812DE958
:10583000F04106460F4614461D463946304621F0D3
:1058400057F880462A462146404600F0BCFB00231C
:1058500022463946304630F081FC24F4FE42394677
:10586000304622F095FABDE8F0812DE9F041064678
:105870000F4614461D463946304621F039F8804619
:105880002A462146404600F0AEFB00232246394618
:10589000304630F063FC24F4FE423946304622F0B4
:1058A00077FABDE8F0810000014800687047000009
:1058B0002C010020704730B50002002300BF9C1867
:1058C00004FB04F5854200D823465208002AF6D18D
:1058D000C3F30F150D801D072D0E4D8030BD2DE932
:1058E000F04705460E461746B8461DB94FF0FF3043
:1058F000BDE8F087286810B94FF0FF30F8E731466F
:1059000028460CF0F7F90446002C02DA4FF0FF307D
:10591000EEE7A01C2A68111802224046FFF78EFB12
:10592000214628460CF04EFB81464FEA162A0AF023
:105930007F0000EA0900DBE72DE9F04705460E4647
:105940001746B8461DB94FF0FF30BDE8F08728680C
:1059500010B94FF0FF30F8E7314628460CF0CAF98D
:105960000446002C02DA4FF0FF30EEE7A01C2A6854
:10597000111802224046FFF761FB214628460CF031
:1059800021FB81464FEA162A0AF07F0000EA09004F
:10599000DBE770B50546286808B9002070BD002413
:1059A00004E0214630460CF08BF904462146284697
:1059B0000CF011FB0646FF28F3D1A01C80B2EDE7E6
:1059C0002DE9F04705460E461746B8461DB94FF07B
:1059D000FF30BDE8F087286810B94FF0FF30F8E7D6
:1059E000314628460CF086F90446002C02DA4FF0C6
:1059F000FF30EEE7A01C2A68111801224046FFF78D
:105A00001DFB214628460CF0DDFA81464FEA162A96
:105A10000AF07F0000EA0900DBE72DE9F0470546C0
:105A20000E461746B8461DB94FF0FF30BDE8F08767
:105A3000286810B94FF0FF30F8E7314628460CF0DF
:105A400059F90446002C02DA4FF0FF30EEE7A01CB3
:105A50002A68111804224046FFF7F0FA214628462A
:105A60000CF0B0FA81464FEA162A0AF07F0000EAED
:105A70000900DBE72DE9F041044688460CB9BDE892
:105A8000F0814146204600F0C7F9207900F03F0040
:105A900020B904201FF058F8054608E0227902F0EA
:105AA0003F02521C910020681FF0FAF8054600BF23
:105AB000284615F067F930B92A46002316A015F0DC
:105AC00067F900BFFEE700BF05B9D8E700272079D6
:105AD000C0F3C01008B1781CC7B22079C0F38010A1
